{
  "contractName": "StepCoin",
  "abi": [
    {
      "anonymous": false,
      "inputs": [
        {
          "indexed": false,
          "internalType": "address",
          "name": "accountAddress",
          "type": "address"
        },
        {
          "indexed": false,
          "internalType": "uint256",
          "name": "amount",
          "type": "uint256"
        }
      ],
      "name": "LogBalance",
      "type": "event"
    },
    {
      "anonymous": false,
      "inputs": [
        {
          "indexed": false,
          "internalType": "address",
          "name": "accountAddress",
          "type": "address"
        }
      ],
      "name": "LogEnrolled",
      "type": "event"
    },
    {
      "anonymous": false,
      "inputs": [
        {
          "indexed": false,
          "internalType": "address",
          "name": "accountAddress",
          "type": "address"
        },
        {
          "indexed": false,
          "internalType": "uint256",
          "name": "redeemAmount",
          "type": "uint256"
        },
        {
          "indexed": false,
          "internalType": "uint256",
          "name": "newBalance",
          "type": "uint256"
        }
      ],
      "name": "LogRedeem",
      "type": "event"
    },
    {
      "constant": true,
      "inputs": [],
      "name": "awardCount",
      "outputs": [
        {
          "internalType": "uint256",
          "name": "",
          "type": "uint256"
        }
      ],
      "payable": false,
      "stateMutability": "view",
      "type": "function"
    },
    {
      "constant": true,
      "inputs": [
        {
          "internalType": "uint256",
          "name": "",
          "type": "uint256"
        }
      ],
      "name": "awards",
      "outputs": [
        {
          "internalType": "string",
          "name": "name",
          "type": "string"
        },
        {
          "internalType": "uint256",
          "name": "count",
          "type": "uint256"
        },
        {
          "internalType": "uint256",
          "name": "price",
          "type": "uint256"
        },
        {
          "internalType": "enum StepCoin.State",
          "name": "state",
          "type": "uint8"
        },
        {
          "internalType": "address payable",
          "name": "seller",
          "type": "address"
        },
        {
          "internalType": "address payable",
          "name": "buyer",
          "type": "address"
        }
      ],
      "payable": false,
      "stateMutability": "view",
      "type": "function"
    },
    {
      "constant": true,
      "inputs": [
        {
          "internalType": "address",
          "name": "",
          "type": "address"
        }
      ],
      "name": "balances",
      "outputs": [
        {
          "internalType": "uint256",
          "name": "",
          "type": "uint256"
        }
      ],
      "payable": false,
      "stateMutability": "view",
      "type": "function"
    },
    {
      "constant": true,
      "inputs": [
        {
          "internalType": "address",
          "name": "",
          "type": "address"
        }
      ],
      "name": "enrolled",
      "outputs": [
        {
          "internalType": "bool",
          "name": "",
          "type": "bool"
        }
      ],
      "payable": false,
      "stateMutability": "view",
      "type": "function"
    },
    {
      "constant": true,
      "inputs": [],
      "name": "owner",
      "outputs": [
        {
          "internalType": "address payable",
          "name": "",
          "type": "address"
        }
      ],
      "payable": false,
      "stateMutability": "view",
      "type": "function"
    },
    {
      "constant": false,
      "inputs": [],
      "name": "enroll",
      "outputs": [
        {
          "internalType": "bool",
          "name": "",
          "type": "bool"
        }
      ],
      "payable": false,
      "stateMutability": "nonpayable",
      "type": "function"
    },
    {
      "constant": false,
      "inputs": [
        {
          "internalType": "uint256",
          "name": "step",
          "type": "uint256"
        }
      ],
      "name": "depositSteps",
      "outputs": [
        {
          "internalType": "uint256",
          "name": "",
          "type": "uint256"
        }
      ],
      "payable": true,
      "stateMutability": "payable",
      "type": "function"
    },
    {
      "constant": true,
      "inputs": [],
      "name": "checkBalance",
      "outputs": [
        {
          "internalType": "uint256",
          "name": "",
          "type": "uint256"
        }
      ],
      "payable": false,
      "stateMutability": "view",
      "type": "function"
    },
    {
      "constant": false,
      "inputs": [
        {
          "internalType": "string",
          "name": "_name",
          "type": "string"
        },
        {
          "internalType": "uint256",
          "name": "_price",
          "type": "uint256"
        }
      ],
      "name": "addAward",
      "outputs": [
        {
          "internalType": "bool",
          "name": "",
          "type": "bool"
        }
      ],
      "payable": false,
      "stateMutability": "nonpayable",
      "type": "function"
    },
    {
      "constant": false,
      "inputs": [
        {
          "internalType": "uint256",
          "name": "_i",
          "type": "uint256"
        }
      ],
      "name": "buyAward",
      "outputs": [
        {
          "internalType": "uint256",
          "name": "",
          "type": "uint256"
        }
      ],
      "payable": true,
      "stateMutability": "payable",
      "type": "function"
    },
    {
      "constant": false,
      "inputs": [
        {
          "internalType": "uint256",
          "name": "_awardCount",
          "type": "uint256"
        }
      ],
      "name": "useAward",
      "outputs": [],
      "payable": true,
      "stateMutability": "payable",
      "type": "function"
    }
  ],
  "bytecode": "0x608060405234801561001057600080fd5b50611051806100206000396000f3fe60806040526004361061009c5760003560e01c80639a133832116100645780639a13383214610236578063a3883dbc14610320578063c71daccb1461034b578063e65f2a7e14610376578063f767ff5d146103a5578063fc5a5b63146103e75761009c565b806310eb0e0e146100a157806316c4ca5a1461010a57806327e235e314610138578063317049611461019d5780638da5cb5b146101df575b600080fd5b3480156100ad57600080fd5b506100f0600480360360208110156100c457600080fd5b81019080803573ffffffffffffffffffffffffffffffffffffffff169060200190929190505050610524565b604051808215151515815260200191505060405180910390f35b6101366004803603602081101561012057600080fd5b8101908080359060200190929190505050610544565b005b34801561014457600080fd5b506101876004803603602081101561015b57600080fd5b81019080803573ffffffffffffffffffffffffffffffffffffffff16906020019092919050505061057f565b6040518082815260200191505060405180910390f35b6101c9600480360360208110156101b357600080fd5b8101908080359060200190929190505050610597565b6040518082815260200191505060405180910390f35b3480156101eb57600080fd5b506101f4610950565b604051808273ffffffffffffffffffffffffffffffffffffffff1673ffffffffffffffffffffffffffffffffffffffff16815260200191505060405180910390f35b34801561024257600080fd5b506103066004803603604081101561025957600080fd5b810190808035906020019064010000000081111561027657600080fd5b82018360208201111561028857600080fd5b803590602001918460018302840111640100000000831117156102aa57600080fd5b91908080601f016020809104026020016040519081016040528093929190818152602001838380828437600081840152601f19601f82011690508083019250505050505050919291929080359060200190929190505050610975565b604051808215151515815260200191505060405180910390f35b34801561032c57600080fd5b50610335610af4565b6040518082815260200191505060405180910390f35b34801561035757600080fd5b50610360610afa565b6040518082815260200191505060405180910390f35b34801561038257600080fd5b5061038b610b41565b604051808215151515815260200191505060405180910390f35b6103d1600480360360208110156103bb57600080fd5b8101908080359060200190929190505050610c50565b6040518082815260200191505060405180910390f35b3480156103f357600080fd5b506104206004803603602081101561040a57600080fd5b8101908080359060200190929190505050610e56565b604051808060200187815260200186815260200185600281111561044057fe5b60ff1681526020018473ffffffffffffffffffffffffffffffffffffffff1673ffffffffffffffffffffffffffffffffffffffff1681526020018373ffffffffffffffffffffffffffffffffffffffff1673ffffffffffffffffffffffffffffffffffffffff168152602001828103825288818151815260200191508051906020019080838360005b838110156104e45780820151818401526020810190506104c9565b50505050905090810190601f1680156105115780820380516001836020036101000a031916815260200191505b5097505050505050505060405180910390f35b60026020528060005260406000206000915054906101000a900460ff1681565b60026004600083815260200190815260200160002060030160006101000a81548160ff0219169083600281111561057757fe5b021790555050565b60036020528060005260406000206000915090505481565b600081600060028111156105a757fe5b6004600083815260200190815260200160002060030160009054906101000a900460ff1660028111156105d657fe5b1480156106465750600073ffffffffffffffffffffffffffffffffffffffff166004600083815260200190815260200160002060030160019054906101000a900473ffffffffffffffffffffffffffffffffffffffff1673ffffffffffffffffffffffffffffffffffffffff1614155b61064f57600080fd5b6004600084815260200190815260200160002060020154600360003373ffffffffffffffffffffffffffffffffffffffff1673ffffffffffffffffffffffffffffffffffffffff16815260200190815260200160002054101561071a576040517f08c379a00000000000000000000000000000000000000000000000000000000081526004018080602001828103825260148152602001807f4e6f7420656e6f7567682053746570636f696e7300000000000000000000000081525060200191505060405180910390fd5b336004600085815260200190815260200160002060040160006101000a81548173ffffffffffffffffffffffffffffffffffffffff021916908373ffffffffffffffffffffffffffffffffffffffff16021790555060016004600085815260200190815260200160002060030160006101000a81548160ff021916908360028111156107a257fe5b02179055506004600084815260200190815260200160002060020154600360003373ffffffffffffffffffffffffffffffffffffffff1673ffffffffffffffffffffffffffffffffffffffff168152602001908152602001600020600082825403925050819055507fbd434383a6b06c152a65dd95ea76c9dc4659ed28d33d0fc359ca637401e7a29d6004600085815260200190815260200160002060040160009054906101000a900473ffffffffffffffffffffffffffffffffffffffff166004600086815260200190815260200160002060020154600360003373ffffffffffffffffffffffffffffffffffffffff1673ffffffffffffffffffffffffffffffffffffffff16815260200190815260200160002054604051808473ffffffffffffffffffffffffffffffffffffffff1673ffffffffffffffffffffffffffffffffffffffff168152602001838152602001828152602001935050505060405180910390a1600360003373ffffffffffffffffffffffffffffffffffffffff1673ffffffffffffffffffffffffffffffffffffffff16815260200190815260200160002054915050919050565b6000809054906101000a900473ffffffffffffffffffffffffffffffffffffffff1681565b60006040518060c001604052808481526020016001548152602001838152602001600060028111156109a357fe5b81526020013373ffffffffffffffffffffffffffffffffffffffff168152602001600073ffffffffffffffffffffffffffffffffffffffff168152506004600060015481526020019081526020016000206000820151816000019080519060200190610a10929190610f77565b50602082015181600101556040820151816002015560608201518160030160006101000a81548160ff02191690836002811115610a4957fe5b021790555060808201518160030160016101000a81548173ffffffffffffffffffffffffffffffffffffffff021916908373ffffffffffffffffffffffffffffffffffffffff16021790555060a08201518160040160006101000a81548173ffffffffffffffffffffffffffffffffffffffff021916908373ffffffffffffffffffffffffffffffffffffffff16021790555090505060018054016001819055506001905092915050565b60015481565b6000600360003373ffffffffffffffffffffffffffffffffffffffff1673ffffffffffffffffffffffffffffffffffffffff16815260200190815260200160002054905090565b60006001600260003373ffffffffffffffffffffffffffffffffffffffff1673ffffffffffffffffffffffffffffffffffffffff16815260200190815260200160002060006101000a81548160ff0219169083151502179055507f990c442e6adb818b8fa7db3cf1023decd07f7b66e5306928c7ed527d974192bb33604051808273ffffffffffffffffffffffffffffffffffffffff1673ffffffffffffffffffffffffffffffffffffffff16815260200191505060405180910390a1600260003373ffffffffffffffffffffffffffffffffffffffff1673ffffffffffffffffffffffffffffffffffffffff16815260200190815260200160002060009054906101000a900460ff16905090565b600060011515600260003373ffffffffffffffffffffffffffffffffffffffff1673ffffffffffffffffffffffffffffffffffffffff16815260200190815260200160002060009054906101000a900460ff16151514610d18576040517f08c379a000000000000000000000000000000000000000000000000000000000815260040180806020018281038252600d8152602001807f506c6561736520656e726f6c6c0000000000000000000000000000000000000081525060200191505060405180910390fd5b81600360003373ffffffffffffffffffffffffffffffffffffffff1673ffffffffffffffffffffffffffffffffffffffff168152602001908152602001600020600082825401925050819055507fd7d4bb646aebbc253bc680b22568524f9f1a717b17aae0fa35a6ec36f5731e9533600360003373ffffffffffffffffffffffffffffffffffffffff1673ffffffffffffffffffffffffffffffffffffffff16815260200190815260200160002054604051808373ffffffffffffffffffffffffffffffffffffffff1673ffffffffffffffffffffffffffffffffffffffff1681526020018281526020019250505060405180910390a1600360003373ffffffffffffffffffffffffffffffffffffffff1673ffffffffffffffffffffffffffffffffffffffff168152602001908152602001600020549050919050565b6004602052806000526040600020600091509050806000018054600181600116156101000203166002900480601f016020809104026020016040519081016040528092919081815260200182805460018160011615610100020316600290048015610f025780601f10610ed757610100808354040283529160200191610f02565b820191906000526020600020905b815481529060010190602001808311610ee557829003601f168201915b5050505050908060010154908060020154908060030160009054906101000a900460ff16908060030160019054906101000a900473ffffffffffffffffffffffffffffffffffffffff16908060040160009054906101000a900473ffffffffffffffffffffffffffffffffffffffff16905086565b828054600181600116156101000203166002900490600052602060002090601f016020900481019282601f10610fb857805160ff1916838001178555610fe6565b82800160010185558215610fe6579182015b82811115610fe5578251825591602001919060010190610fca565b5b509050610ff39190610ff7565b5090565b61101991905b80821115611015576000816000905550600101610ffd565b5090565b9056fea265627a7a72315820da93e15cc5e8f5bc86a1329984f9ca7e5142cf093b3ef73251b46d529417c66f64736f6c63430005100032",
  "source": "// SPDX-License-Identifier: MIT\n//pragma solidity >0.4.0 <0.7.0\n//pragma solidity 0.8.9;\npragma solidity >=0.4.21 <0.8.9;\n\ncontract StepCoin {\n\n  // state variables\n  address payable public owner;\n  uint public awardCount;\n  \nmodifier isOwner () {\n    require(msg.sender == owner);\n    _;\n  }\n  \nmodifier verifyCaller (address _address) {\n    require (msg.sender == _address);\n    _;\n  }\n\nmodifier paidEnough(uint _price) {\n    require(msg.value >= _price);\n    _;\n  }\n  \nmodifier forSale(uint _i) {\n    require(awards[_i].state == State.New && awards[_i].seller != address(0));\n    _;\n  }\n\n  // enrollment to the StepCoin\n  mapping (address => bool) public enrolled;\n  // keep clients balances of stepcoints\n  mapping (address => uint) public balances;\n  // mapping all awards from shops\n  mapping (uint256 => Award) public awards;\n\n  // enum states of award: New, Redeemed, Used\n  enum State {\n    New,\n    Redeemed,\n    Used\n  }\n\n  // struct Award\n  struct Award {\n    string name;\n    uint count;\n    uint price;\n    State state;\n    address payable seller;\n    address payable buyer;\n  }\n\n  // Events\n  event LogEnrolled(address accountAddress);\n  event LogBalance(address accountAddress, uint amount);\n  event LogRedeem(address accountAddress, uint redeemAmount, uint newBalance);\n\n\n  //constructor() public {\n    // 1. Set the owner to the transaction sender\n   // owner = payable (msg.sender);\n  //}\n\n// function to enroll to the system\n  function enroll() public returns(bool){\n    enrolled[msg.sender] = true;\n    emit LogEnrolled(msg.sender);\n    return enrolled[msg.sender];\n  }\n\n// fuction to deposit steps into coins\n// maybe deposit should take steps from user and convert to coint??\n  function depositSteps(uint step) public payable returns (uint) {\n    require(enrolled[msg.sender]== true, \"Please enroll\");\n    balances[msg.sender] += step;\n    emit LogBalance(msg.sender, balances[msg.sender]);\n    return balances[msg.sender];\n  }\n\n// function to check balance of coins\n  function checkBalance() public view returns(uint){\n    return balances[msg.sender];\n  }\n\n// function to add Award to the site\n  function addAward(string memory _name, uint _price) public returns(bool){\n    awards[awardCount] = Award({\n      name: _name,\n      count: awardCount,\n      price: _price,\n      state: State.New,\n      seller: msg.sender,\n      buyer: address(0)\n    });\n    \n    awardCount = awardCount +1;\n    return true;\n  }\n\n// function to redeem stepcoin and get Award\n// maybe need to add some modifier like Award is New and Buyer has enough coins to redeem\n// function getAward(uint _i) payable public {\n//    awards[_i].buyer = payable(msg.sender);\n//    awards[_i].state = State.Redeemed;\n//    awards[_i].seller.transfer(awards[_i].price);\n//    uint newBalance = balances[msg.sender]-awards[_i].price;\n//    emit LogRedeem(awards[_i].buyer, awards[_i].price, newBalance);\n//  } \n  \nfunction buyAward(uint _i) public payable forSale(_i) returns (uint){\n   //(bool success, ) = awards[_i].seller.call{ value: _coin }(\"\");\n   // require(success, \"Transfer failed.\");\n    require(balances[msg.sender]>= awards[_i].price, \"Not enough Stepcoins\");\n    awards[_i].buyer = msg.sender;\n    awards[_i].state = State.Redeemed;\n    balances[msg.sender] -= awards[_i].price;\n    emit LogRedeem(awards[_i].buyer, awards[_i].price, balances[msg.sender]);\n    return balances[msg.sender];\n}\n\n// function to use Award\n  function useAward(uint _awardCount) payable public{\n    awards[_awardCount].state = State.Used;\n  }\n}",
  "sourcePath": "/Users/artyomgalimzyanov/Documents/Blockchain/blockchain-developer-bootcamp-final-project/react_test/contracts/StepCoin.sol",
  "compiler": {
    "name": "solc",
    "version": "0.5.16+commit.9c3226ce.Emscripten.clang"
  },
  "schemaVersion": "3.4.3",
  "updatedAt": "2021-10-31T15:41:23.664Z",
  "networkType": "ethereum",
  "devdoc": {
    "methods": {}
  },
  "userdoc": {
    "methods": {}
  }
}