{
  "contractName": "StepCoin",
  "abi": [
    {
      "inputs": [],
      "stateMutability": "nonpayable",
      "type": "constructor"
    },
    {
      "anonymous": false,
      "inputs": [
        {
          "indexed": false,
          "internalType": "address",
          "name": "accountAddress",
          "type": "address"
        },
        {
          "indexed": false,
          "internalType": "uint256",
          "name": "amount",
          "type": "uint256"
        }
      ],
      "name": "LogBalance",
      "type": "event"
    },
    {
      "anonymous": false,
      "inputs": [
        {
          "indexed": false,
          "internalType": "address",
          "name": "accountAddress",
          "type": "address"
        }
      ],
      "name": "LogEnrolled",
      "type": "event"
    },
    {
      "anonymous": false,
      "inputs": [
        {
          "indexed": false,
          "internalType": "address",
          "name": "accountAddress",
          "type": "address"
        },
        {
          "indexed": false,
          "internalType": "uint256",
          "name": "redeemAmount",
          "type": "uint256"
        },
        {
          "indexed": false,
          "internalType": "uint256",
          "name": "newBalance",
          "type": "uint256"
        }
      ],
      "name": "LogRedeem",
      "type": "event"
    },
    {
      "anonymous": false,
      "inputs": [
        {
          "indexed": true,
          "internalType": "address",
          "name": "previousOwner",
          "type": "address"
        },
        {
          "indexed": true,
          "internalType": "address",
          "name": "newOwner",
          "type": "address"
        }
      ],
      "name": "OwnershipTransferred",
      "type": "event"
    },
    {
      "anonymous": false,
      "inputs": [],
      "name": "Pause",
      "type": "event"
    },
    {
      "anonymous": false,
      "inputs": [],
      "name": "Unpause",
      "type": "event"
    },
    {
      "inputs": [
        {
          "internalType": "address",
          "name": "",
          "type": "address"
        },
        {
          "internalType": "uint256",
          "name": "",
          "type": "uint256"
        }
      ],
      "name": "List",
      "outputs": [
        {
          "internalType": "string",
          "name": "",
          "type": "string"
        }
      ],
      "stateMutability": "view",
      "type": "function",
      "constant": true
    },
    {
      "inputs": [],
      "name": "awardCount",
      "outputs": [
        {
          "internalType": "uint256",
          "name": "",
          "type": "uint256"
        }
      ],
      "stateMutability": "view",
      "type": "function",
      "constant": true
    },
    {
      "inputs": [
        {
          "internalType": "uint256",
          "name": "",
          "type": "uint256"
        }
      ],
      "name": "awards",
      "outputs": [
        {
          "internalType": "string",
          "name": "name",
          "type": "string"
        },
        {
          "internalType": "uint256",
          "name": "count",
          "type": "uint256"
        },
        {
          "internalType": "uint256",
          "name": "price",
          "type": "uint256"
        },
        {
          "internalType": "enum StepCoin.State",
          "name": "state",
          "type": "uint8"
        },
        {
          "internalType": "address payable",
          "name": "seller",
          "type": "address"
        },
        {
          "internalType": "address payable",
          "name": "buyer",
          "type": "address"
        }
      ],
      "stateMutability": "view",
      "type": "function",
      "constant": true
    },
    {
      "inputs": [
        {
          "internalType": "address",
          "name": "",
          "type": "address"
        }
      ],
      "name": "balances",
      "outputs": [
        {
          "internalType": "uint256",
          "name": "",
          "type": "uint256"
        }
      ],
      "stateMutability": "view",
      "type": "function",
      "constant": true
    },
    {
      "inputs": [
        {
          "internalType": "address",
          "name": "",
          "type": "address"
        }
      ],
      "name": "enrolled",
      "outputs": [
        {
          "internalType": "bool",
          "name": "",
          "type": "bool"
        }
      ],
      "stateMutability": "view",
      "type": "function",
      "constant": true
    },
    {
      "inputs": [],
      "name": "owner",
      "outputs": [
        {
          "internalType": "address",
          "name": "",
          "type": "address"
        }
      ],
      "stateMutability": "view",
      "type": "function",
      "constant": true
    },
    {
      "inputs": [],
      "name": "paused",
      "outputs": [
        {
          "internalType": "bool",
          "name": "",
          "type": "bool"
        }
      ],
      "stateMutability": "view",
      "type": "function",
      "constant": true
    },
    {
      "inputs": [],
      "name": "renounceOwnership",
      "outputs": [],
      "stateMutability": "nonpayable",
      "type": "function"
    },
    {
      "inputs": [
        {
          "internalType": "address",
          "name": "newOwner",
          "type": "address"
        }
      ],
      "name": "transferOwnership",
      "outputs": [],
      "stateMutability": "nonpayable",
      "type": "function"
    },
    {
      "inputs": [],
      "name": "enroll",
      "outputs": [
        {
          "internalType": "bool",
          "name": "",
          "type": "bool"
        }
      ],
      "stateMutability": "nonpayable",
      "type": "function"
    },
    {
      "inputs": [
        {
          "internalType": "uint256",
          "name": "step",
          "type": "uint256"
        }
      ],
      "name": "depositSteps",
      "outputs": [
        {
          "internalType": "uint256",
          "name": "",
          "type": "uint256"
        }
      ],
      "stateMutability": "payable",
      "type": "function",
      "payable": true
    },
    {
      "inputs": [],
      "name": "checkmyAwards",
      "outputs": [
        {
          "internalType": "string[]",
          "name": "",
          "type": "string[]"
        }
      ],
      "stateMutability": "view",
      "type": "function",
      "constant": true
    },
    {
      "inputs": [
        {
          "internalType": "string",
          "name": "_name",
          "type": "string"
        },
        {
          "internalType": "uint256",
          "name": "_price",
          "type": "uint256"
        }
      ],
      "name": "addAward",
      "outputs": [
        {
          "internalType": "bool",
          "name": "",
          "type": "bool"
        }
      ],
      "stateMutability": "nonpayable",
      "type": "function"
    },
    {
      "inputs": [
        {
          "internalType": "uint256",
          "name": "_i",
          "type": "uint256"
        }
      ],
      "name": "buyAward",
      "outputs": [
        {
          "internalType": "uint256",
          "name": "",
          "type": "uint256"
        }
      ],
      "stateMutability": "payable",
      "type": "function",
      "payable": true
    },
    {
      "inputs": [
        {
          "internalType": "uint256",
          "name": "_i",
          "type": "uint256"
        }
      ],
      "name": "useAward",
      "outputs": [
        {
          "internalType": "bool",
          "name": "",
          "type": "bool"
        }
      ],
      "stateMutability": "payable",
      "type": "function",
      "payable": true
    },
    {
      "inputs": [],
      "name": "pause",
      "outputs": [
        {
          "internalType": "bool",
          "name": "",
          "type": "bool"
        }
      ],
      "stateMutability": "nonpayable",
      "type": "function"
    },
    {
      "inputs": [],
      "name": "unpause",
      "outputs": [],
      "stateMutability": "nonpayable",
      "type": "function"
    },
    {
      "inputs": [
        {
          "internalType": "uint256",
          "name": "_i",
          "type": "uint256"
        }
      ],
      "name": "fetchAward",
      "outputs": [
        {
          "internalType": "string",
          "name": "name",
          "type": "string"
        },
        {
          "internalType": "uint256",
          "name": "count",
          "type": "uint256"
        },
        {
          "internalType": "uint256",
          "name": "price",
          "type": "uint256"
        },
        {
          "internalType": "uint256",
          "name": "state",
          "type": "uint256"
        },
        {
          "internalType": "address",
          "name": "seller",
          "type": "address"
        },
        {
          "internalType": "address",
          "name": "buyer",
          "type": "address"
        }
      ],
      "stateMutability": "view",
      "type": "function",
      "constant": true
    }
  ],
  "bytecode": "0x60806040526000600260006101000a81548160ff02191690831515021790555034801561002b57600080fd5b5061004861003d61004d60201b60201c565b61005560201b60201c565b610119565b600033905090565b60008060009054906101000a900473ffffffffffffffffffffffffffffffffffffffff169050816000806101000a81548173ffffffffffffffffffffffffffffffffffffffff021916908373ffffffffffffffffffffffffffffffffffffffff1602179055508173ffffffffffffffffffffffffffffffffffffffff168173ffffffffffffffffffffffffffffffffffffffff167f8be0079c531659141344cd1fd0a4f28419497f9722a3daafe3b4186f6b6457e060405160405180910390a35050565b61249a80620001296000396000f3fe6080604052600436106101095760003560e01c80638da5cb5b11610095578063ce652c6a11610064578063ce652c6a1461037e578063e65f2a7e146103a9578063f2fde38b146103d4578063f767ff5d146103fd578063fc5a5b631461042d57610109565b80638da5cb5b146102ae5780639a133832146102d95780639bcb1fdb14610316578063a3883dbc1461035357610109565b806331704961116100dc57806331704961146101fa5780633f4ba83a1461022a5780635c975abb14610241578063715018a61461026c5780638456cb591461028357610109565b806310eb0e0e1461010e5780631264376d1461014b57806316c4ca5a1461018d57806327e235e3146101bd575b600080fd5b34801561011a57600080fd5b5061013560048036038101906101309190611ad9565b61046f565b6040516101429190611f13565b60405180910390f35b34801561015757600080fd5b50610172600480360381019061016d9190611b92565b61048f565b60405161018496959493929190611fb8565b60405180910390f35b6101a760048036038101906101a29190611b92565b610645565b6040516101b49190611f13565b60405180910390f35b3480156101c957600080fd5b506101e460048036038101906101df9190611ad9565b610884565b6040516101f191906120c0565b60405180910390f35b610214600480360381019061020f9190611b92565b61089c565b60405161022191906120c0565b60405180910390f35b34801561023657600080fd5b5061023f610d28565b005b34801561024d57600080fd5b50610256610e06565b6040516102639190611f13565b60405180910390f35b34801561027857600080fd5b50610281610e19565b005b34801561028f57600080fd5b50610298610ea1565b6040516102a59190611f13565b60405180910390f35b3480156102ba57600080fd5b506102c3610f87565b6040516102d09190611e76565b60405180910390f35b3480156102e557600080fd5b5061030060048036038101906102fb9190611b3e565b610fb0565b60405161030d9190611f13565b60405180910390f35b34801561032257600080fd5b5061033d60048036038101906103389190611b02565b6111ac565b60405161034a9190611f2e565b60405180910390f35b34801561035f57600080fd5b50610368611265565b60405161037591906120c0565b60405180910390f35b34801561038a57600080fd5b5061039361126b565b6040516103a09190611ef1565b60405180910390f35b3480156103b557600080fd5b506103be611381565b6040516103cb9190611f13565b60405180910390f35b3480156103e057600080fd5b506103fb60048036038101906103f69190611ad9565b61147e565b005b61041760048036038101906104129190611b92565b611576565b60405161042491906120c0565b60405180910390f35b34801561043957600080fd5b50610454600480360381019061044f9190611b92565b61173a565b60405161046696959493929190611f50565b60405180910390f35b60036020528060005260406000206000915054906101000a900460ff1681565b606060008060008060006005600088815260200190815260200160002060000180546104ba90612323565b80601f01602080910402602001604051908101604052809291908181526020018280546104e690612323565b80156105335780601f1061050857610100808354040283529160200191610533565b820191906000526020600020905b81548152906001019060200180831161051657829003601f168201915b5050505050955060056000888152602001908152602001600020600101549450600560008881526020019081526020016000206002015493506005600088815260200190815260200160002060030160009054906101000a900460ff1660028111156105c8577f4e487b7100000000000000000000000000000000000000000000000000000000600052602160045260246000fd5b92506005600088815260200190815260200160002060030160019054906101000a900473ffffffffffffffffffffffffffffffffffffffff1691506005600088815260200190815260200160002060040160009054906101000a900473ffffffffffffffffffffffffffffffffffffffff16905091939550919395565b6000600260009054906101000a900460ff161561066157600080fd5b816001600281111561069c577f4e487b7100000000000000000000000000000000000000000000000000000000600052602160045260246000fd5b6005600083815260200190815260200160002060030160009054906101000a900460ff1660028111156106f8577f4e487b7100000000000000000000000000000000000000000000000000000000600052602160045260246000fd5b1480156107685750600073ffffffffffffffffffffffffffffffffffffffff166005600083815260200190815260200160002060030160019054906101000a900473ffffffffffffffffffffffffffffffffffffffff1673ffffffffffffffffffffffffffffffffffffffff1614155b61077157600080fd5b3373ffffffffffffffffffffffffffffffffffffffff166005600085815260200190815260200160002060030160019054906101000a900473ffffffffffffffffffffffffffffffffffffffff1673ffffffffffffffffffffffffffffffffffffffff1614610815576040517f08c379a000000000000000000000000000000000000000000000000000000000815260040161080c90612020565b60405180910390fd5b60026005600085815260200190815260200160002060030160006101000a81548160ff02191690836002811115610875577f4e487b7100000000000000000000000000000000000000000000000000000000600052602160045260246000fd5b02179055506001915050919050565b60046020528060005260406000206000915090505481565b600081600060028111156108d9577f4e487b7100000000000000000000000000000000000000000000000000000000600052602160045260246000fd5b6005600083815260200190815260200160002060030160009054906101000a900460ff166002811115610935577f4e487b7100000000000000000000000000000000000000000000000000000000600052602160045260246000fd5b1480156109a55750600073ffffffffffffffffffffffffffffffffffffffff166005600083815260200190815260200160002060030160019054906101000a900473ffffffffffffffffffffffffffffffffffffffff1673ffffffffffffffffffffffffffffffffffffffff1614155b6109ae57600080fd5b826005600082815260200190815260200160002060020154600460003373ffffffffffffffffffffffffffffffffffffffff1673ffffffffffffffffffffffffffffffffffffffff168152602001908152602001600020541015610a47576040517f08c379a0000000000000000000000000000000000000000000000000000000008152600401610a3e90612060565b60405180910390fd5b600260009054906101000a900460ff1615610a6157600080fd5b336005600086815260200190815260200160002060040160006101000a81548173ffffffffffffffffffffffffffffffffffffffff021916908373ffffffffffffffffffffffffffffffffffffffff16021790555060016005600086815260200190815260200160002060030160006101000a81548160ff02191690836002811115610b16577f4e487b7100000000000000000000000000000000000000000000000000000000600052602160045260246000fd5b02179055506005600085815260200190815260200160002060020154600460003373ffffffffffffffffffffffffffffffffffffffff1673ffffffffffffffffffffffffffffffffffffffff1681526020019081526020016000206000828254610b8091906121f8565b92505081905550600660003373ffffffffffffffffffffffffffffffffffffffff1673ffffffffffffffffffffffffffffffffffffffff1681526020019081526020016000206005600086815260200190815260200160002060000190806001815401808255809150506001900390600052602060002001600090919091909150908054610c0d90612323565b610c18929190611917565b507fbd434383a6b06c152a65dd95ea76c9dc4659ed28d33d0fc359ca637401e7a29d6005600086815260200190815260200160002060040160009054906101000a900473ffffffffffffffffffffffffffffffffffffffff166005600087815260200190815260200160002060020154600460003373ffffffffffffffffffffffffffffffffffffffff1673ffffffffffffffffffffffffffffffffffffffff16815260200190815260200160002054604051610cd793929190611e91565b60405180910390a1600460003373ffffffffffffffffffffffffffffffffffffffff1673ffffffffffffffffffffffffffffffffffffffff1681526020019081526020016000205492505050919050565b610d3061184b565b73ffffffffffffffffffffffffffffffffffffffff16610d4e610f87565b73ffffffffffffffffffffffffffffffffffffffff1614610da4576040517f08c379a0000000000000000000000000000000000000000000000000000000008152600401610d9b90612080565b60405180910390fd5b600260009054906101000a900460ff16610dbd57600080fd5b6000600260006101000a81548160ff0219169083151502179055507f7805862f689e2f13df9f062ff482ad3ad112aca9e0847911ed832e158c525b3360405160405180910390a1565b600260009054906101000a900460ff1681565b610e2161184b565b73ffffffffffffffffffffffffffffffffffffffff16610e3f610f87565b73ffffffffffffffffffffffffffffffffffffffff1614610e95576040517f08c379a0000000000000000000000000000000000000000000000000000000008152600401610e8c90612080565b60405180910390fd5b610e9f6000611853565b565b6000610eab61184b565b73ffffffffffffffffffffffffffffffffffffffff16610ec9610f87565b73ffffffffffffffffffffffffffffffffffffffff1614610f1f576040517f08c379a0000000000000000000000000000000000000000000000000000000008152600401610f1690612080565b60405180910390fd5b600260009054906101000a900460ff1615610f3957600080fd5b6001600260006101000a81548160ff0219169083151502179055507f6985a02210a168e66602d3235cb6db0e70f92b3ba4d376a33c0f3d9434bff62560405160405180910390a16001905090565b60008060009054906101000a900473ffffffffffffffffffffffffffffffffffffffff16905090565b6000600260009054906101000a900460ff1615610fcc57600080fd5b6040518060c00160405280848152602001600154815260200183815260200160006002811115611025577f4e487b7100000000000000000000000000000000000000000000000000000000600052602160045260246000fd5b81526020013373ffffffffffffffffffffffffffffffffffffffff168152602001600073ffffffffffffffffffffffffffffffffffffffff1681525060056000600154815260200190815260200160002060008201518160000190805190602001906110929291906119a4565b50602082015181600101556040820151816002015560608201518160030160006101000a81548160ff021916908360028111156110f8577f4e487b7100000000000000000000000000000000000000000000000000000000600052602160045260246000fd5b021790555060808201518160030160016101000a81548173ffffffffffffffffffffffffffffffffffffffff021916908373ffffffffffffffffffffffffffffffffffffffff16021790555060a08201518160040160006101000a81548173ffffffffffffffffffffffffffffffffffffffff021916908373ffffffffffffffffffffffffffffffffffffffff1602179055509050506001805461119c91906121a2565b6001819055506001905092915050565b600660205281600052604060002081815481106111c857600080fd5b906000526020600020016000915091505080546111e490612323565b80601f016020809104026020016040519081016040528092919081815260200182805461121090612323565b801561125d5780601f106112325761010080835404028352916020019161125d565b820191906000526020600020905b81548152906001019060200180831161124057829003601f168201915b505050505081565b60015481565b6060600660003373ffffffffffffffffffffffffffffffffffffffff1673ffffffffffffffffffffffffffffffffffffffff168152602001908152602001600020805480602002602001604051908101604052809291908181526020016000905b828210156113785783829060005260206000200180546112eb90612323565b80601f016020809104026020016040519081016040528092919081815260200182805461131790612323565b80156113645780601f1061133957610100808354040283529160200191611364565b820191906000526020600020905b81548152906001019060200180831161134757829003601f168201915b5050505050815260200190600101906112cc565b50505050905090565b6000600260009054906101000a900460ff161561139d57600080fd5b6001600360003373ffffffffffffffffffffffffffffffffffffffff1673ffffffffffffffffffffffffffffffffffffffff16815260200190815260200160002060006101000a81548160ff0219169083151502179055507f990c442e6adb818b8fa7db3cf1023decd07f7b66e5306928c7ed527d974192bb336040516114249190611e76565b60405180910390a1600360003373ffffffffffffffffffffffffffffffffffffffff1673ffffffffffffffffffffffffffffffffffffffff16815260200190815260200160002060009054906101000a900460ff16905090565b61148661184b565b73ffffffffffffffffffffffffffffffffffffffff166114a4610f87565b73ffffffffffffffffffffffffffffffffffffffff16146114fa576040517f08c379a00000000000000000000000000000000000000000000000000000000081526004016114f190612080565b60405180910390fd5b600073ffffffffffffffffffffffffffffffffffffffff168173ffffffffffffffffffffffffffffffffffffffff16141561156a576040517f08c379a000000000000000000000000000000000000000000000000000000000815260040161156190612040565b60405180910390fd5b61157381611853565b50565b6000600260009054906101000a900460ff161561159257600080fd5b60011515600360003373ffffffffffffffffffffffffffffffffffffffff1673ffffffffffffffffffffffffffffffffffffffff16815260200190815260200160002060009054906101000a900460ff16151514611625576040517f08c379a000000000000000000000000000000000000000000000000000000000815260040161161c906120a0565b60405180910390fd5b81600460003373ffffffffffffffffffffffffffffffffffffffff1673ffffffffffffffffffffffffffffffffffffffff168152602001908152602001600020600082825461167491906121a2565b925050819055507fd7d4bb646aebbc253bc680b22568524f9f1a717b17aae0fa35a6ec36f5731e9533600460003373ffffffffffffffffffffffffffffffffffffffff1673ffffffffffffffffffffffffffffffffffffffff168152602001908152602001600020546040516116eb929190611ec8565b60405180910390a1600460003373ffffffffffffffffffffffffffffffffffffffff1673ffffffffffffffffffffffffffffffffffffffff168152602001908152602001600020549050919050565b600560205280600052604060002060009150905080600001805461175d90612323565b80601f016020809104026020016040519081016040528092919081815260200182805461178990612323565b80156117d65780601f106117ab576101008083540402835291602001916117d6565b820191906000526020600020905b8154815290600101906020018083116117b957829003601f168201915b5050505050908060010154908060020154908060030160009054906101000a900460ff16908060030160019054906101000a900473ffffffffffffffffffffffffffffffffffffffff16908060040160009054906101000a900473ffffffffffffffffffffffffffffffffffffffff16905086565b600033905090565b60008060009054906101000a900473ffffffffffffffffffffffffffffffffffffffff169050816000806101000a81548173ffffffffffffffffffffffffffffffffffffffff021916908373ffffffffffffffffffffffffffffffffffffffff1602179055508173ffffffffffffffffffffffffffffffffffffffff168173ffffffffffffffffffffffffffffffffffffffff167f8be0079c531659141344cd1fd0a4f28419497f9722a3daafe3b4186f6b6457e060405160405180910390a35050565b82805461192390612323565b90600052602060002090601f0160209004810192826119455760008555611993565b82601f106119565780548555611993565b8280016001018555821561199357600052602060002091601f016020900482015b82811115611992578254825591600101919060010190611977565b5b5090506119a09190611a2a565b5090565b8280546119b090612323565b90600052602060002090601f0160209004810192826119d25760008555611a19565b82601f106119eb57805160ff1916838001178555611a19565b82800160010185558215611a19579182015b82811115611a185782518255916020019190600101906119fd565b5b509050611a269190611a2a565b5090565b5b80821115611a43576000816000905550600101611a2b565b5090565b6000611a5a611a558461210c565b6120db565b905082815260208101848484011115611a7257600080fd5b611a7d8482856122e1565b509392505050565b600081359050611a9481612436565b92915050565b600082601f830112611aab57600080fd5b8135611abb848260208601611a47565b91505092915050565b600081359050611ad38161244d565b92915050565b600060208284031215611aeb57600080fd5b6000611af984828501611a85565b91505092915050565b60008060408385031215611b1557600080fd5b6000611b2385828601611a85565b9250506020611b3485828601611ac4565b9150509250929050565b60008060408385031215611b5157600080fd5b600083013567ffffffffffffffff811115611b6b57600080fd5b611b7785828601611a9a565b9250506020611b8885828601611ac4565b9150509250929050565b600060208284031215611ba457600080fd5b6000611bb284828501611ac4565b91505092915050565b6000611bc78383611c8f565b905092915050565b611bd881612299565b82525050565b611be78161223e565b82525050565b611bf68161222c565b82525050565b6000611c078261214c565b611c11818561216f565b935083602082028501611c238561213c565b8060005b85811015611c5f5784840389528151611c408582611bbb565b9450611c4b83612162565b925060208a01995050600181019050611c27565b50829750879550505050505092915050565b611c7a81612250565b82525050565b611c89816122ab565b82525050565b6000611c9a82612157565b611ca48185612180565b9350611cb48185602086016122f0565b611cbd81612411565b840191505092915050565b6000611cd382612157565b611cdd8185612191565b9350611ced8185602086016122f0565b611cf681612411565b840191505092915050565b6000611d0e601483612191565b91507f596f7520617265206e6f7420612073656c6c65720000000000000000000000006000830152602082019050919050565b6000611d4e602683612191565b91507f4f776e61626c653a206e6577206f776e657220697320746865207a65726f206160008301527f64647265737300000000000000000000000000000000000000000000000000006020830152604082019050919050565b6000611db4601483612191565b91507f4e6f7420656e6f7567682053746570636f696e730000000000000000000000006000830152602082019050919050565b6000611df4602083612191565b91507f4f776e61626c653a2063616c6c6572206973206e6f7420746865206f776e65726000830152602082019050919050565b6000611e34600d83612191565b91507f506c6561736520656e726f6c6c000000000000000000000000000000000000006000830152602082019050919050565b611e708161228f565b82525050565b6000602082019050611e8b6000830184611bed565b92915050565b6000606082019050611ea66000830186611bcf565b611eb36020830185611e67565b611ec06040830184611e67565b949350505050565b6000604082019050611edd6000830185611bed565b611eea6020830184611e67565b9392505050565b60006020820190508181036000830152611f0b8184611bfc565b905092915050565b6000602082019050611f286000830184611c71565b92915050565b60006020820190508181036000830152611f488184611cc8565b905092915050565b600060c0820190508181036000830152611f6a8189611cc8565b9050611f796020830188611e67565b611f866040830187611e67565b611f936060830186611c80565b611fa06080830185611bde565b611fad60a0830184611bde565b979650505050505050565b600060c0820190508181036000830152611fd28189611cc8565b9050611fe16020830188611e67565b611fee6040830187611e67565b611ffb6060830186611e67565b6120086080830185611bed565b61201560a0830184611bed565b979650505050505050565b6000602082019050818103600083015261203981611d01565b9050919050565b6000602082019050818103600083015261205981611d41565b9050919050565b6000602082019050818103600083015261207981611da7565b9050919050565b6000602082019050818103600083015261209981611de7565b9050919050565b600060208201905081810360008301526120b981611e27565b9050919050565b60006020820190506120d56000830184611e67565b92915050565b6000604051905081810181811067ffffffffffffffff82111715612102576121016123e2565b5b8060405250919050565b600067ffffffffffffffff821115612127576121266123e2565b5b601f19601f8301169050602081019050919050565b6000819050602082019050919050565b600081519050919050565b600081519050919050565b6000602082019050919050565b600082825260208201905092915050565b600082825260208201905092915050565b600082825260208201905092915050565b60006121ad8261228f565b91506121b88361228f565b9250827fffffffffffffffffffffffffffffffffffffffffffffffffffffffffffffffff038211156121ed576121ec612355565b5b828201905092915050565b60006122038261228f565b915061220e8361228f565b92508282101561222157612220612355565b5b828203905092915050565b60006122378261226f565b9050919050565b60006122498261226f565b9050919050565b60008115159050919050565b600081905061226a82612422565b919050565b600073ffffffffffffffffffffffffffffffffffffffff82169050919050565b6000819050919050565b60006122a4826122bd565b9050919050565b60006122b68261225c565b9050919050565b60006122c8826122cf565b9050919050565b60006122da8261226f565b9050919050565b82818337600083830152505050565b60005b8381101561230e5780820151818401526020810190506122f3565b8381111561231d576000848401525b50505050565b6000600282049050600182168061233b57607f821691505b6020821081141561234f5761234e6123b3565b5b50919050565b7f4e487b7100000000000000000000000000000000000000000000000000000000600052601160045260246000fd5b7f4e487b7100000000000000000000000000000000000000000000000000000000600052602160045260246000fd5b7f4e487b7100000000000000000000000000000000000000000000000000000000600052602260045260246000fd5b7f4e487b7100000000000000000000000000000000000000000000000000000000600052604160045260246000fd5b6000601f19601f8301169050919050565b6003811061243357612432612384565b5b50565b61243f8161222c565b811461244a57600080fd5b50565b6124568161228f565b811461246157600080fd5b5056fea264697066735822122011a86b3528d27410c16e3425a14fa080c4c85c08f0d416d449e268954394fecf64736f6c63430008000033",
  "immutableReferences": {},
  "source": "// SPDX-License-Identifier: MIT\n\npragma solidity 0.8.0;\npragma experimental ABIEncoderV2;\n\nimport \"@openzeppelin/contracts/access/Ownable.sol\";\n\n/// @title Contract StepCoin allows to convert your steps into coins and get award\n/// @author Artem Galimzyanov\n/// @notice Allows a user to convert steps into coins and  get award\n\n\ncontract StepCoin is Ownable {\n\n/// state variables\n  uint public awardCount;\n  bool public paused = false;\n\n\nmodifier whenNotPaused () {\n    require (!paused);\n    _;\n  }\n\nmodifier whenPaused () {\n    require (paused);\n    _;\n  }\n\nmodifier paidEnough(uint _i) {\n    require(balances[msg.sender]>= awards[_i].price, \"Not enough Stepcoins\");\n    _;\n  }\n  \nmodifier forSale(uint _i) {\n    require(awards[_i].state == State.New && awards[_i].seller != address(0));\n    _;\n  }\nmodifier Redeemed(uint _i) {\n    require(awards[_i].state == State.Redeemed && awards[_i].seller != address(0));\n    _;\n  }\n\n  /// enrollment to the StepCoin\n  mapping (address => bool) public enrolled;\n  /// keep clients balances of stepcoints\n  mapping (address => uint) public balances;\n  /// mapping all awards from shops\n  mapping (uint256 => Award) public awards;\n  /// mapping of awards per user\n  mapping (address => string[]) public  List;\n\n  /// enum states of award: New, Redeemed, Used\n  enum State {\n    New,\n    Redeemed,\n    Used\n  }\n\n  /// struct Award\n  struct Award {\n    string name;\n    uint count;\n    uint price;\n    State state;\n    address payable seller;\n    address payable buyer;\n  }\n\n  ///Events\n  event LogEnrolled(address accountAddress);\n  event LogBalance(address accountAddress, uint amount);\n  event LogRedeem(address accountAddress, uint redeemAmount, uint newBalance);\n  event Pause();\n  event Unpause();\n\n\n  constructor() public {\n  \n  }\n\n// function to enroll to the Program\n  function enroll() public whenNotPaused returns(bool){\n    enrolled[msg.sender] = true;\n    emit LogEnrolled(msg.sender);\n    return enrolled[msg.sender];\n  }\n\n/// function to deposit steps and get Stepcoins\n  function depositSteps(uint step) public payable whenNotPaused returns (uint) {\n    require(enrolled[msg.sender]== true, \"Please enroll\");\n    balances[msg.sender] += step;\n    emit LogBalance(msg.sender, balances[msg.sender]);\n    return balances[msg.sender];\n  }\n\n/// function to check balance of Users awards\n  function checkmyAwards() public view returns(string[] memory){\n    return List[msg.sender];\n  }\n\n/// function to add Award to the site\n  function addAward(string memory _name, uint _price) public whenNotPaused returns(bool){\n    awards[awardCount] = Award({\n      name: _name,\n      count: awardCount,\n      price: _price,\n      state: State.New,\n      seller: payable (msg.sender),\n      buyer: payable ( address(0))\n    });\n    \n    awardCount = awardCount +1;\n    return true;\n  }\n\n/// function to buy Award with StepCoins  \nfunction buyAward(uint _i)  public payable forSale(_i)  paidEnough(_i) whenNotPaused returns (uint){\n    awards[_i].buyer = payable (msg.sender);\n    awards[_i].state = State.Redeemed;\n    balances[msg.sender] -= awards[_i].price;\n    List[msg.sender].push(awards[_i].name);\n    emit LogRedeem(awards[_i].buyer, awards[_i].price, balances[msg.sender]);\n    return balances[msg.sender];\n}\n\n/// function to use Award\n  function useAward(uint _i) public payable whenNotPaused Redeemed(_i) returns(bool){\n    require (awards[_i].seller == msg.sender, \"You are not a seller\");\n    awards[_i].state = State.Used;\n    return true;\n  }\n\n  function pause() public onlyOwner whenNotPaused returns(bool){\n    paused = true;\n    emit Pause();\n    return true;\n  }\n\n  function unpause() public onlyOwner whenPaused {\n    paused = false;\n    emit Unpause();\n  }\n\n  function fetchAward(uint _i) public view \n    returns (string memory name, uint count, uint price, uint state, address seller, address buyer) \n  {\n    name = awards[_i].name;\n    count = awards[_i].count;\n    price = awards[_i].price;\n    state = uint(awards[_i].state);\n    seller = awards[_i].seller;\n    buyer = awards[_i].buyer;\n    return (name, count, price, state, seller, buyer);\n  }\n\n}",
  "sourcePath": "/Users/artyomgalimzyanov/Documents/Blockchain/blockchain-developer-bootcamp-final-project/contracts/StepCoin.sol",
  "compiler": {
    "name": "solc",
    "version": "0.8.0+commit.c7dfd78e.Emscripten.clang"
  },
  "schemaVersion": "3.4.3",
  "updatedAt": "2021-11-05T14:18:54.767Z",
  "networkType": "ethereum",
  "devdoc": {
    "author": "Artem Galimzyanov",
    "kind": "dev",
    "methods": {
      "owner()": {
        "details": "Returns the address of the current owner."
      },
      "renounceOwnership()": {
        "details": "Leaves the contract without owner. It will not be possible to call `onlyOwner` functions anymore. Can only be called by the current owner. NOTE: Renouncing ownership will leave the contract without an owner, thereby removing any functionality that is only available to the owner."
      },
      "transferOwnership(address)": {
        "details": "Transfers ownership of the contract to a new account (`newOwner`). Can only be called by the current owner."
      }
    },
    "title": "Contract StepCoin allows to convert your steps into coins and get award",
    "version": 1
  },
  "userdoc": {
    "events": {
      "LogEnrolled(address)": {
        "notice": "Events"
      }
    },
    "kind": "user",
    "methods": {
      "List(address,uint256)": {
        "notice": "mapping of awards per user"
      },
      "addAward(string,uint256)": {
        "notice": "function to add Award to the site"
      },
      "awardCount()": {
        "notice": "state variables"
      },
      "awards(uint256)": {
        "notice": "mapping all awards from shops"
      },
      "balances(address)": {
        "notice": "keep clients balances of stepcoints"
      },
      "buyAward(uint256)": {
        "notice": "function to buy Award with StepCoins  "
      },
      "checkmyAwards()": {
        "notice": "function to check balance of Users awards"
      },
      "depositSteps(uint256)": {
        "notice": "function to deposit steps and get Stepcoins"
      },
      "enrolled(address)": {
        "notice": "enrollment to the StepCoin"
      },
      "useAward(uint256)": {
        "notice": "function to use Award"
      }
    },
    "notice": "Allows a user to convert steps into coins and  get award",
    "version": 1
  }
}