{
  "contractName": "StepCoin",
  "abi": [
    {
      "inputs": [],
      "stateMutability": "nonpayable",
      "type": "constructor"
    },
    {
      "anonymous": false,
      "inputs": [
        {
          "indexed": false,
          "internalType": "address",
          "name": "accountAddress",
          "type": "address"
        },
        {
          "indexed": false,
          "internalType": "uint256",
          "name": "amount",
          "type": "uint256"
        }
      ],
      "name": "LogBalance",
      "type": "event"
    },
    {
      "anonymous": false,
      "inputs": [
        {
          "indexed": false,
          "internalType": "address",
          "name": "accountAddress",
          "type": "address"
        },
        {
          "indexed": false,
          "internalType": "uint256",
          "name": "redeemAmount",
          "type": "uint256"
        },
        {
          "indexed": false,
          "internalType": "uint256",
          "name": "newBalance",
          "type": "uint256"
        }
      ],
      "name": "LogRedeem",
      "type": "event"
    },
    {
      "anonymous": false,
      "inputs": [
        {
          "indexed": true,
          "internalType": "address",
          "name": "previousOwner",
          "type": "address"
        },
        {
          "indexed": true,
          "internalType": "address",
          "name": "newOwner",
          "type": "address"
        }
      ],
      "name": "OwnershipTransferred",
      "type": "event"
    },
    {
      "anonymous": false,
      "inputs": [],
      "name": "Pause",
      "type": "event"
    },
    {
      "anonymous": false,
      "inputs": [],
      "name": "Unpause",
      "type": "event"
    },
    {
      "inputs": [
        {
          "internalType": "address",
          "name": "",
          "type": "address"
        },
        {
          "internalType": "uint256",
          "name": "",
          "type": "uint256"
        }
      ],
      "name": "List",
      "outputs": [
        {
          "internalType": "string",
          "name": "",
          "type": "string"
        }
      ],
      "stateMutability": "view",
      "type": "function"
    },
    {
      "inputs": [],
      "name": "awardCount",
      "outputs": [
        {
          "internalType": "uint256",
          "name": "",
          "type": "uint256"
        }
      ],
      "stateMutability": "view",
      "type": "function"
    },
    {
      "inputs": [
        {
          "internalType": "uint256",
          "name": "",
          "type": "uint256"
        }
      ],
      "name": "awards",
      "outputs": [
        {
          "internalType": "string",
          "name": "name",
          "type": "string"
        },
        {
          "internalType": "uint256",
          "name": "count",
          "type": "uint256"
        },
        {
          "internalType": "uint256",
          "name": "price",
          "type": "uint256"
        },
        {
          "internalType": "enum StepCoin.State",
          "name": "state",
          "type": "uint8"
        },
        {
          "internalType": "address payable",
          "name": "seller",
          "type": "address"
        },
        {
          "internalType": "address payable",
          "name": "buyer",
          "type": "address"
        }
      ],
      "stateMutability": "view",
      "type": "function"
    },
    {
      "inputs": [
        {
          "internalType": "address",
          "name": "",
          "type": "address"
        }
      ],
      "name": "balances",
      "outputs": [
        {
          "internalType": "uint256",
          "name": "",
          "type": "uint256"
        }
      ],
      "stateMutability": "view",
      "type": "function"
    },
    {
      "inputs": [],
      "name": "owner",
      "outputs": [
        {
          "internalType": "address",
          "name": "",
          "type": "address"
        }
      ],
      "stateMutability": "view",
      "type": "function"
    },
    {
      "inputs": [],
      "name": "paused",
      "outputs": [
        {
          "internalType": "bool",
          "name": "",
          "type": "bool"
        }
      ],
      "stateMutability": "view",
      "type": "function"
    },
    {
      "inputs": [],
      "name": "renounceOwnership",
      "outputs": [],
      "stateMutability": "nonpayable",
      "type": "function"
    },
    {
      "inputs": [
        {
          "internalType": "address",
          "name": "newOwner",
          "type": "address"
        }
      ],
      "name": "transferOwnership",
      "outputs": [],
      "stateMutability": "nonpayable",
      "type": "function"
    },
    {
      "inputs": [
        {
          "internalType": "uint256",
          "name": "step",
          "type": "uint256"
        }
      ],
      "name": "depositSteps",
      "outputs": [
        {
          "internalType": "uint256",
          "name": "",
          "type": "uint256"
        }
      ],
      "stateMutability": "payable",
      "type": "function"
    },
    {
      "inputs": [],
      "name": "checkmyAwards",
      "outputs": [
        {
          "internalType": "string[]",
          "name": "",
          "type": "string[]"
        }
      ],
      "stateMutability": "view",
      "type": "function"
    },
    {
      "inputs": [
        {
          "internalType": "string",
          "name": "_name",
          "type": "string"
        },
        {
          "internalType": "uint256",
          "name": "_price",
          "type": "uint256"
        }
      ],
      "name": "addAward",
      "outputs": [
        {
          "internalType": "bool",
          "name": "",
          "type": "bool"
        }
      ],
      "stateMutability": "nonpayable",
      "type": "function"
    },
    {
      "inputs": [
        {
          "internalType": "uint256",
          "name": "_i",
          "type": "uint256"
        }
      ],
      "name": "buyAward",
      "outputs": [
        {
          "internalType": "uint256",
          "name": "",
          "type": "uint256"
        }
      ],
      "stateMutability": "payable",
      "type": "function"
    },
    {
      "inputs": [
        {
          "internalType": "uint256",
          "name": "_i",
          "type": "uint256"
        }
      ],
      "name": "useAward",
      "outputs": [
        {
          "internalType": "bool",
          "name": "",
          "type": "bool"
        }
      ],
      "stateMutability": "payable",
      "type": "function"
    },
    {
      "inputs": [],
      "name": "pause",
      "outputs": [
        {
          "internalType": "bool",
          "name": "",
          "type": "bool"
        }
      ],
      "stateMutability": "nonpayable",
      "type": "function"
    },
    {
      "inputs": [],
      "name": "unpause",
      "outputs": [],
      "stateMutability": "nonpayable",
      "type": "function"
    },
    {
      "inputs": [
        {
          "internalType": "uint256",
          "name": "_i",
          "type": "uint256"
        }
      ],
      "name": "fetchAward",
      "outputs": [
        {
          "internalType": "string",
          "name": "name",
          "type": "string"
        },
        {
          "internalType": "uint256",
          "name": "count",
          "type": "uint256"
        },
        {
          "internalType": "uint256",
          "name": "price",
          "type": "uint256"
        },
        {
          "internalType": "uint256",
          "name": "state",
          "type": "uint256"
        },
        {
          "internalType": "address",
          "name": "seller",
          "type": "address"
        },
        {
          "internalType": "address",
          "name": "buyer",
          "type": "address"
        }
      ],
      "stateMutability": "view",
      "type": "function"
    }
  ],
  "bytecode": "0x60806040526000600260006101000a81548160ff02191690831515021790555034801561002b57600080fd5b5061004861003d61004d60201b60201c565b61005560201b60201c565b610119565b600033905090565b60008060009054906101000a900473ffffffffffffffffffffffffffffffffffffffff169050816000806101000a81548173ffffffffffffffffffffffffffffffffffffffff021916908373ffffffffffffffffffffffffffffffffffffffff1602179055508173ffffffffffffffffffffffffffffffffffffffff168173ffffffffffffffffffffffffffffffffffffffff167f8be0079c531659141344cd1fd0a4f28419497f9722a3daafe3b4186f6b6457e060405160405180910390a35050565b61220c80620001296000396000f3fe6080604052600436106100f35760003560e01c80638da5cb5b1161008a578063ce652c6a11610059578063ce652c6a1461032b578063f2fde38b14610356578063f767ff5d1461037f578063fc5a5b63146103af576100f3565b80638da5cb5b1461025b5780639a133832146102865780639bcb1fdb146102c3578063a3883dbc14610300576100f3565b80633f4ba83a116100c65780633f4ba83a146101d75780635c975abb146101ee578063715018a6146102195780638456cb5914610230576100f3565b80631264376d146100f857806316c4ca5a1461013a57806327e235e31461016a57806331704961146101a7575b600080fd5b34801561010457600080fd5b5061011f600480360381019061011a9190611964565b6103f1565b60405161013196959493929190611d4a565b60405180910390f35b610154600480360381019061014f9190611964565b6105a7565b6040516101619190611ca5565b60405180910390f35b34801561017657600080fd5b50610191600480360381019061018c91906118ab565b6107e6565b60405161019e9190611e32565b60405180910390f35b6101c160048036038101906101bc9190611964565b6107fe565b6040516101ce9190611e32565b60405180910390f35b3480156101e357600080fd5b506101ec610c8a565b005b3480156101fa57600080fd5b50610203610d68565b6040516102109190611ca5565b60405180910390f35b34801561022557600080fd5b5061022e610d7b565b005b34801561023c57600080fd5b50610245610e03565b6040516102529190611ca5565b60405180910390f35b34801561026757600080fd5b50610270610ee9565b60405161027d9190611c08565b60405180910390f35b34801561029257600080fd5b506102ad60048036038101906102a89190611910565b610f12565b6040516102ba9190611ca5565b60405180910390f35b3480156102cf57600080fd5b506102ea60048036038101906102e591906118d4565b61110e565b6040516102f79190611cc0565b60405180910390f35b34801561030c57600080fd5b506103156111c7565b6040516103229190611e32565b60405180910390f35b34801561033757600080fd5b506103406111cd565b60405161034d9190611c83565b60405180910390f35b34801561036257600080fd5b5061037d600480360381019061037891906118ab565b6112e3565b005b61039960048036038101906103949190611964565b6113db565b6040516103a69190611e32565b60405180910390f35b3480156103bb57600080fd5b506103d660048036038101906103d19190611964565b61150c565b6040516103e896959493929190611ce2565b60405180910390f35b6060600080600080600060046000888152602001908152602001600020600001805461041c90612095565b80601f016020809104026020016040519081016040528092919081815260200182805461044890612095565b80156104955780601f1061046a57610100808354040283529160200191610495565b820191906000526020600020905b81548152906001019060200180831161047857829003601f168201915b5050505050955060046000888152602001908152602001600020600101549450600460008881526020019081526020016000206002015493506004600088815260200190815260200160002060030160009054906101000a900460ff16600281111561052a577f4e487b7100000000000000000000000000000000000000000000000000000000600052602160045260246000fd5b92506004600088815260200190815260200160002060030160019054906101000a900473ffffffffffffffffffffffffffffffffffffffff1691506004600088815260200190815260200160002060040160009054906101000a900473ffffffffffffffffffffffffffffffffffffffff16905091939550919395565b6000600260009054906101000a900460ff16156105c357600080fd5b81600160028111156105fe577f4e487b7100000000000000000000000000000000000000000000000000000000600052602160045260246000fd5b6004600083815260200190815260200160002060030160009054906101000a900460ff16600281111561065a577f4e487b7100000000000000000000000000000000000000000000000000000000600052602160045260246000fd5b1480156106ca5750600073ffffffffffffffffffffffffffffffffffffffff166004600083815260200190815260200160002060030160019054906101000a900473ffffffffffffffffffffffffffffffffffffffff1673ffffffffffffffffffffffffffffffffffffffff1614155b6106d357600080fd5b3373ffffffffffffffffffffffffffffffffffffffff166004600085815260200190815260200160002060030160019054906101000a900473ffffffffffffffffffffffffffffffffffffffff1673ffffffffffffffffffffffffffffffffffffffff1614610777576040517f08c379a000000000000000000000000000000000000000000000000000000000815260040161076e90611db2565b60405180910390fd5b60026004600085815260200190815260200160002060030160006101000a81548160ff021916908360028111156107d7577f4e487b7100000000000000000000000000000000000000000000000000000000600052602160045260246000fd5b02179055506001915050919050565b60036020528060005260406000206000915090505481565b6000816000600281111561083b577f4e487b7100000000000000000000000000000000000000000000000000000000600052602160045260246000fd5b6004600083815260200190815260200160002060030160009054906101000a900460ff166002811115610897577f4e487b7100000000000000000000000000000000000000000000000000000000600052602160045260246000fd5b1480156109075750600073ffffffffffffffffffffffffffffffffffffffff166004600083815260200190815260200160002060030160019054906101000a900473ffffffffffffffffffffffffffffffffffffffff1673ffffffffffffffffffffffffffffffffffffffff1614155b61091057600080fd5b826004600082815260200190815260200160002060020154600360003373ffffffffffffffffffffffffffffffffffffffff1673ffffffffffffffffffffffffffffffffffffffff1681526020019081526020016000205410156109a9576040517f08c379a00000000000000000000000000000000000000000000000000000000081526004016109a090611df2565b60405180910390fd5b600260009054906101000a900460ff16156109c357600080fd5b336004600086815260200190815260200160002060040160006101000a81548173ffffffffffffffffffffffffffffffffffffffff021916908373ffffffffffffffffffffffffffffffffffffffff16021790555060016004600086815260200190815260200160002060030160006101000a81548160ff02191690836002811115610a78577f4e487b7100000000000000000000000000000000000000000000000000000000600052602160045260246000fd5b02179055506004600085815260200190815260200160002060020154600360003373ffffffffffffffffffffffffffffffffffffffff1673ffffffffffffffffffffffffffffffffffffffff1681526020019081526020016000206000828254610ae29190611f6a565b92505081905550600560003373ffffffffffffffffffffffffffffffffffffffff1673ffffffffffffffffffffffffffffffffffffffff1681526020019081526020016000206004600086815260200190815260200160002060000190806001815401808255809150506001900390600052602060002001600090919091909150908054610b6f90612095565b610b7a9291906116e9565b507fbd434383a6b06c152a65dd95ea76c9dc4659ed28d33d0fc359ca637401e7a29d6004600086815260200190815260200160002060040160009054906101000a900473ffffffffffffffffffffffffffffffffffffffff166004600087815260200190815260200160002060020154600360003373ffffffffffffffffffffffffffffffffffffffff1673ffffffffffffffffffffffffffffffffffffffff16815260200190815260200160002054604051610c3993929190611c23565b60405180910390a1600360003373ffffffffffffffffffffffffffffffffffffffff1673ffffffffffffffffffffffffffffffffffffffff1681526020019081526020016000205492505050919050565b610c9261161d565b73ffffffffffffffffffffffffffffffffffffffff16610cb0610ee9565b73ffffffffffffffffffffffffffffffffffffffff1614610d06576040517f08c379a0000000000000000000000000000000000000000000000000000000008152600401610cfd90611e12565b60405180910390fd5b600260009054906101000a900460ff16610d1f57600080fd5b6000600260006101000a81548160ff0219169083151502179055507f7805862f689e2f13df9f062ff482ad3ad112aca9e0847911ed832e158c525b3360405160405180910390a1565b600260009054906101000a900460ff1681565b610d8361161d565b73ffffffffffffffffffffffffffffffffffffffff16610da1610ee9565b73ffffffffffffffffffffffffffffffffffffffff1614610df7576040517f08c379a0000000000000000000000000000000000000000000000000000000008152600401610dee90611e12565b60405180910390fd5b610e016000611625565b565b6000610e0d61161d565b73ffffffffffffffffffffffffffffffffffffffff16610e2b610ee9565b73ffffffffffffffffffffffffffffffffffffffff1614610e81576040517f08c379a0000000000000000000000000000000000000000000000000000000008152600401610e7890611e12565b60405180910390fd5b600260009054906101000a900460ff1615610e9b57600080fd5b6001600260006101000a81548160ff0219169083151502179055507f6985a02210a168e66602d3235cb6db0e70f92b3ba4d376a33c0f3d9434bff62560405160405180910390a16001905090565b60008060009054906101000a900473ffffffffffffffffffffffffffffffffffffffff16905090565b6000600260009054906101000a900460ff1615610f2e57600080fd5b6040518060c00160405280848152602001600154815260200183815260200160006002811115610f87577f4e487b7100000000000000000000000000000000000000000000000000000000600052602160045260246000fd5b81526020013373ffffffffffffffffffffffffffffffffffffffff168152602001600073ffffffffffffffffffffffffffffffffffffffff168152506004600060015481526020019081526020016000206000820151816000019080519060200190610ff4929190611776565b50602082015181600101556040820151816002015560608201518160030160006101000a81548160ff0219169083600281111561105a577f4e487b7100000000000000000000000000000000000000000000000000000000600052602160045260246000fd5b021790555060808201518160030160016101000a81548173ffffffffffffffffffffffffffffffffffffffff021916908373ffffffffffffffffffffffffffffffffffffffff16021790555060a08201518160040160006101000a81548173ffffffffffffffffffffffffffffffffffffffff021916908373ffffffffffffffffffffffffffffffffffffffff160217905550905050600180546110fe9190611f14565b6001819055506001905092915050565b6005602052816000526040600020818154811061112a57600080fd5b9060005260206000200160009150915050805461114690612095565b80601f016020809104026020016040519081016040528092919081815260200182805461117290612095565b80156111bf5780601f10611194576101008083540402835291602001916111bf565b820191906000526020600020905b8154815290600101906020018083116111a257829003601f168201915b505050505081565b60015481565b6060600560003373ffffffffffffffffffffffffffffffffffffffff1673ffffffffffffffffffffffffffffffffffffffff168152602001908152602001600020805480602002602001604051908101604052809291908181526020016000905b828210156112da57838290600052602060002001805461124d90612095565b80601f016020809104026020016040519081016040528092919081815260200182805461127990612095565b80156112c65780601f1061129b576101008083540402835291602001916112c6565b820191906000526020600020905b8154815290600101906020018083116112a957829003601f168201915b50505050508152602001906001019061122e565b50505050905090565b6112eb61161d565b73ffffffffffffffffffffffffffffffffffffffff16611309610ee9565b73ffffffffffffffffffffffffffffffffffffffff161461135f576040517f08c379a000000000000000000000000000000000000000000000000000000000815260040161135690611e12565b60405180910390fd5b600073ffffffffffffffffffffffffffffffffffffffff168173ffffffffffffffffffffffffffffffffffffffff1614156113cf576040517f08c379a00000000000000000000000000000000000000000000000000000000081526004016113c690611dd2565b60405180910390fd5b6113d881611625565b50565b6000600260009054906101000a900460ff16156113f757600080fd5b81600360003373ffffffffffffffffffffffffffffffffffffffff1673ffffffffffffffffffffffffffffffffffffffff16815260200190815260200160002060008282546114469190611f14565b925050819055507fd7d4bb646aebbc253bc680b22568524f9f1a717b17aae0fa35a6ec36f5731e9533600360003373ffffffffffffffffffffffffffffffffffffffff1673ffffffffffffffffffffffffffffffffffffffff168152602001908152602001600020546040516114bd929190611c5a565b60405180910390a1600360003373ffffffffffffffffffffffffffffffffffffffff1673ffffffffffffffffffffffffffffffffffffffff168152602001908152602001600020549050919050565b600460205280600052604060002060009150905080600001805461152f90612095565b80601f016020809104026020016040519081016040528092919081815260200182805461155b90612095565b80156115a85780601f1061157d576101008083540402835291602001916115a8565b820191906000526020600020905b81548152906001019060200180831161158b57829003601f168201915b5050505050908060010154908060020154908060030160009054906101000a900460ff16908060030160019054906101000a900473ffffffffffffffffffffffffffffffffffffffff16908060040160009054906101000a900473ffffffffffffffffffffffffffffffffffffffff16905086565b600033905090565b60008060009054906101000a900473ffffffffffffffffffffffffffffffffffffffff169050816000806101000a81548173ffffffffffffffffffffffffffffffffffffffff021916908373ffffffffffffffffffffffffffffffffffffffff1602179055508173ffffffffffffffffffffffffffffffffffffffff168173ffffffffffffffffffffffffffffffffffffffff167f8be0079c531659141344cd1fd0a4f28419497f9722a3daafe3b4186f6b6457e060405160405180910390a35050565b8280546116f590612095565b90600052602060002090601f0160209004810192826117175760008555611765565b82601f106117285780548555611765565b8280016001018555821561176557600052602060002091601f016020900482015b82811115611764578254825591600101919060010190611749565b5b50905061177291906117fc565b5090565b82805461178290612095565b90600052602060002090601f0160209004810192826117a457600085556117eb565b82601f106117bd57805160ff19168380011785556117eb565b828001600101855582156117eb579182015b828111156117ea5782518255916020019190600101906117cf565b5b5090506117f891906117fc565b5090565b5b808211156118155760008160009055506001016117fd565b5090565b600061182c61182784611e7e565b611e4d565b90508281526020810184848401111561184457600080fd5b61184f848285612053565b509392505050565b600081359050611866816121a8565b92915050565b600082601f83011261187d57600080fd5b813561188d848260208601611819565b91505092915050565b6000813590506118a5816121bf565b92915050565b6000602082840312156118bd57600080fd5b60006118cb84828501611857565b91505092915050565b600080604083850312156118e757600080fd5b60006118f585828601611857565b925050602061190685828601611896565b9150509250929050565b6000806040838503121561192357600080fd5b600083013567ffffffffffffffff81111561193d57600080fd5b6119498582860161186c565b925050602061195a85828601611896565b9150509250929050565b60006020828403121561197657600080fd5b600061198484828501611896565b91505092915050565b60006119998383611a61565b905092915050565b6119aa8161200b565b82525050565b6119b981611fb0565b82525050565b6119c881611f9e565b82525050565b60006119d982611ebe565b6119e38185611ee1565b9350836020820285016119f585611eae565b8060005b85811015611a315784840389528151611a12858261198d565b9450611a1d83611ed4565b925060208a019950506001810190506119f9565b50829750879550505050505092915050565b611a4c81611fc2565b82525050565b611a5b8161201d565b82525050565b6000611a6c82611ec9565b611a768185611ef2565b9350611a86818560208601612062565b611a8f81612183565b840191505092915050565b6000611aa582611ec9565b611aaf8185611f03565b9350611abf818560208601612062565b611ac881612183565b840191505092915050565b6000611ae0601483611f03565b91507f596f7520617265206e6f7420612073656c6c65720000000000000000000000006000830152602082019050919050565b6000611b20602683611f03565b91507f4f776e61626c653a206e6577206f776e657220697320746865207a65726f206160008301527f64647265737300000000000000000000000000000000000000000000000000006020830152604082019050919050565b6000611b86601483611f03565b91507f4e6f7420656e6f7567682053746570636f696e730000000000000000000000006000830152602082019050919050565b6000611bc6602083611f03565b91507f4f776e61626c653a2063616c6c6572206973206e6f7420746865206f776e65726000830152602082019050919050565b611c0281612001565b82525050565b6000602082019050611c1d60008301846119bf565b92915050565b6000606082019050611c3860008301866119a1565b611c456020830185611bf9565b611c526040830184611bf9565b949350505050565b6000604082019050611c6f60008301856119bf565b611c7c6020830184611bf9565b9392505050565b60006020820190508181036000830152611c9d81846119ce565b905092915050565b6000602082019050611cba6000830184611a43565b92915050565b60006020820190508181036000830152611cda8184611a9a565b905092915050565b600060c0820190508181036000830152611cfc8189611a9a565b9050611d0b6020830188611bf9565b611d186040830187611bf9565b611d256060830186611a52565b611d3260808301856119b0565b611d3f60a08301846119b0565b979650505050505050565b600060c0820190508181036000830152611d648189611a9a565b9050611d736020830188611bf9565b611d806040830187611bf9565b611d8d6060830186611bf9565b611d9a60808301856119bf565b611da760a08301846119bf565b979650505050505050565b60006020820190508181036000830152611dcb81611ad3565b9050919050565b60006020820190508181036000830152611deb81611b13565b9050919050565b60006020820190508181036000830152611e0b81611b79565b9050919050565b60006020820190508181036000830152611e2b81611bb9565b9050919050565b6000602082019050611e476000830184611bf9565b92915050565b6000604051905081810181811067ffffffffffffffff82111715611e7457611e73612154565b5b8060405250919050565b600067ffffffffffffffff821115611e9957611e98612154565b5b601f19601f8301169050602081019050919050565b6000819050602082019050919050565b600081519050919050565b600081519050919050565b6000602082019050919050565b600082825260208201905092915050565b600082825260208201905092915050565b600082825260208201905092915050565b6000611f1f82612001565b9150611f2a83612001565b9250827fffffffffffffffffffffffffffffffffffffffffffffffffffffffffffffffff03821115611f5f57611f5e6120c7565b5b828201905092915050565b6000611f7582612001565b9150611f8083612001565b925082821015611f9357611f926120c7565b5b828203905092915050565b6000611fa982611fe1565b9050919050565b6000611fbb82611fe1565b9050919050565b60008115159050919050565b6000819050611fdc82612194565b919050565b600073ffffffffffffffffffffffffffffffffffffffff82169050919050565b6000819050919050565b60006120168261202f565b9050919050565b600061202882611fce565b9050919050565b600061203a82612041565b9050919050565b600061204c82611fe1565b9050919050565b82818337600083830152505050565b60005b83811015612080578082015181840152602081019050612065565b8381111561208f576000848401525b50505050565b600060028204905060018216806120ad57607f821691505b602082108114156120c1576120c0612125565b5b50919050565b7f4e487b7100000000000000000000000000000000000000000000000000000000600052601160045260246000fd5b7f4e487b7100000000000000000000000000000000000000000000000000000000600052602160045260246000fd5b7f4e487b7100000000000000000000000000000000000000000000000000000000600052602260045260246000fd5b7f4e487b7100000000000000000000000000000000000000000000000000000000600052604160045260246000fd5b6000601f19601f8301169050919050565b600381106121a5576121a46120f6565b5b50565b6121b181611f9e565b81146121bc57600080fd5b50565b6121c881612001565b81146121d357600080fd5b5056fea2646970667358221220885440a70c4d9bec5e8a43c546f513a8d1940402b7a551f3a37af2585ff510d664736f6c63430008000033",
  "immutableReferences": {},
  "source": "// SPDX-License-Identifier: MIT\n\npragma solidity 0.8.0;\npragma experimental ABIEncoderV2;\n\nimport \"@openzeppelin/contracts/access/Ownable.sol\";\n\n/// @title Contract StepCoin allows to convert your steps into coins and get award\n/// @author Artem Galimzyanov\n/// @notice Allows a user to convert steps into coins and  get award\n\n\ncontract StepCoin is Ownable {\n\n/// @dev state variables\n  uint public awardCount;\n  bool public paused = false;\n\n/// @dev declare modifiers\nmodifier whenNotPaused () {\n    require (!paused);\n    _;\n  }\n\nmodifier whenPaused () {\n    require (paused);\n    _;\n  }\n\nmodifier paidEnough(uint _i) {\n    require(balances[msg.sender]>= awards[_i].price, \"Not enough Stepcoins\");\n    _;\n  }\n  \nmodifier forSale(uint _i) {\n    require(awards[_i].state == State.New && awards[_i].seller != address(0));\n    _;\n  }\nmodifier Redeemed(uint _i) {\n    require(awards[_i].state == State.Redeemed && awards[_i].seller != address(0));\n    _;\n  }\n\n  /// @dev create mappling of clients balances of stepcoints\n  mapping (address => uint) public balances;\n  /// @dev create mapping of all awards from sellers\n  mapping (uint256 => Award) public awards;\n  /// @dev create mapping of awards per user\n  mapping (address => string[]) public  List;\n\n  /// @notice define enum states of award: New, Redeemed, Used\n  enum State {\n    New,\n    Redeemed,\n    Used\n  }\n\n  /// @notice define a struct Award\n  struct Award {\n    string name;\n    uint count;\n    uint price;\n    State state;\n    address payable seller;\n    address payable buyer;\n  }\n\n  ///@notice define Events\n  event LogBalance(address accountAddress, uint amount);\n  event LogRedeem(address accountAddress, uint redeemAmount, uint newBalance);\n  event Pause();\n  event Unpause();\n\n  constructor() public {\n  \n  }\n\n/// @notice function to deposit steps and get Stepcoins\n  function depositSteps(uint step) public payable whenNotPaused returns (uint) {\n    \n    balances[msg.sender] += step;\n    emit LogBalance(msg.sender, balances[msg.sender]);\n    return balances[msg.sender];\n  }\n\n/// @notice function to check availabe awards of specific user\n  function checkmyAwards() public view returns(string[] memory){\n    return List[msg.sender];\n  }\n\n/// @notice function to add Award to the dApp\n  function addAward(string memory _name, uint _price) public whenNotPaused returns(bool){\n    awards[awardCount] = Award({\n      name: _name,\n      count: awardCount,\n      price: _price,\n      state: State.New,\n      seller: payable (msg.sender),\n      buyer: payable ( address(0))\n    });\n    \n    awardCount = awardCount +1;\n    return true;\n  }\n\n/// @notice function to buy Award with StepCoins  \nfunction buyAward(uint _i)  public payable forSale(_i)  paidEnough(_i) whenNotPaused returns (uint){\n    awards[_i].buyer = payable (msg.sender);\n    awards[_i].state = State.Redeemed;\n    balances[msg.sender] -= awards[_i].price;\n    List[msg.sender].push(awards[_i].name);\n    emit LogRedeem(awards[_i].buyer, awards[_i].price, balances[msg.sender]);\n    return balances[msg.sender];\n}\n\n/// @notice function to use Award\n/// @dev only seller can change status of award from redeemed to used\n  function useAward(uint _i) public payable whenNotPaused Redeemed(_i) returns(bool){\n    require (awards[_i].seller == msg.sender, \"You are not a seller\");\n    awards[_i].state = State.Used;\n    return true;\n  }\n\n/// @notice function to pause a contract\n  function pause() public onlyOwner whenNotPaused returns(bool){\n    paused = true;\n    emit Pause();\n    return true;\n  }\n\n/// @notice function to unpause a contract\n  function unpause() public onlyOwner whenPaused {\n    paused = false;\n    emit Unpause();\n  }\n\n/// @notice function to get info about any award\n  function fetchAward(uint _i) public view \n    returns (string memory name, uint count, uint price, uint state, address seller, address buyer) \n  {\n    name = awards[_i].name;\n    count = awards[_i].count;\n    price = awards[_i].price;\n    state = uint(awards[_i].state);\n    seller = awards[_i].seller;\n    buyer = awards[_i].buyer;\n    return (name, count, price, state, seller, buyer);\n  }\n\n}",
  "sourcePath": "/Users/artyomgalimzyanov/Documents/Blockchain/blockchain-developer-bootcamp-final-project/contracts/StepCoin.sol",
  "compiler": {
    "name": "solc",
    "version": "0.8.0+commit.c7dfd78e.Emscripten.clang"
  },
  "schemaVersion": "3.4.3",
  "updatedAt": "2021-11-06T14:47:34.958Z",
  "devdoc": {
    "author": "Artem Galimzyanov",
    "kind": "dev",
    "methods": {
      "owner()": {
        "details": "Returns the address of the current owner."
      },
      "renounceOwnership()": {
        "details": "Leaves the contract without owner. It will not be possible to call `onlyOwner` functions anymore. Can only be called by the current owner. NOTE: Renouncing ownership will leave the contract without an owner, thereby removing any functionality that is only available to the owner."
      },
      "transferOwnership(address)": {
        "details": "Transfers ownership of the contract to a new account (`newOwner`). Can only be called by the current owner."
      },
      "useAward(uint256)": {
        "details": "only seller can change status of award from redeemed to used"
      }
    },
    "stateVariables": {
      "List": {
        "details": "create mapping of awards per user"
      },
      "awardCount": {
        "details": "state variables"
      },
      "awards": {
        "details": "create mapping of all awards from sellers"
      },
      "balances": {
        "details": "create mappling of clients balances of stepcoints"
      }
    },
    "title": "Contract StepCoin allows to convert your steps into coins and get award",
    "version": 1
  },
  "userdoc": {
    "events": {
      "LogBalance(address,uint256)": {
        "notice": "define Events"
      }
    },
    "kind": "user",
    "methods": {
      "addAward(string,uint256)": {
        "notice": "function to add Award to the dApp"
      },
      "buyAward(uint256)": {
        "notice": "function to buy Award with StepCoins  "
      },
      "checkmyAwards()": {
        "notice": "function to check availabe awards of specific user"
      },
      "depositSteps(uint256)": {
        "notice": "function to deposit steps and get Stepcoins"
      },
      "fetchAward(uint256)": {
        "notice": "function to get info about any award"
      },
      "pause()": {
        "notice": "function to pause a contract"
      },
      "unpause()": {
        "notice": "function to unpause a contract"
      },
      "useAward(uint256)": {
        "notice": "function to use Award"
      }
    },
    "notice": "Allows a user to convert steps into coins and  get award",
    "version": 1
  }
}