{
  "contractName": "StepCoin",
  "abi": [
    {
      "inputs": [],
      "stateMutability": "nonpayable",
      "type": "constructor"
    },
    {
      "anonymous": false,
      "inputs": [
        {
          "indexed": false,
          "internalType": "address",
          "name": "accountAddress",
          "type": "address"
        },
        {
          "indexed": false,
          "internalType": "uint256",
          "name": "amount",
          "type": "uint256"
        }
      ],
      "name": "LogBalance",
      "type": "event"
    },
    {
      "anonymous": false,
      "inputs": [
        {
          "indexed": false,
          "internalType": "address",
          "name": "accountAddress",
          "type": "address"
        }
      ],
      "name": "LogEnrolled",
      "type": "event"
    },
    {
      "anonymous": false,
      "inputs": [
        {
          "indexed": false,
          "internalType": "address",
          "name": "accountAddress",
          "type": "address"
        },
        {
          "indexed": false,
          "internalType": "uint256",
          "name": "redeemAmount",
          "type": "uint256"
        },
        {
          "indexed": false,
          "internalType": "uint256",
          "name": "newBalance",
          "type": "uint256"
        }
      ],
      "name": "LogRedeem",
      "type": "event"
    },
    {
      "anonymous": false,
      "inputs": [
        {
          "indexed": true,
          "internalType": "address",
          "name": "previousOwner",
          "type": "address"
        },
        {
          "indexed": true,
          "internalType": "address",
          "name": "newOwner",
          "type": "address"
        }
      ],
      "name": "OwnershipTransferred",
      "type": "event"
    },
    {
      "anonymous": false,
      "inputs": [],
      "name": "Pause",
      "type": "event"
    },
    {
      "anonymous": false,
      "inputs": [],
      "name": "Unpause",
      "type": "event"
    },
    {
      "inputs": [
        {
          "internalType": "address",
          "name": "",
          "type": "address"
        },
        {
          "internalType": "uint256",
          "name": "",
          "type": "uint256"
        }
      ],
      "name": "List",
      "outputs": [
        {
          "internalType": "string",
          "name": "",
          "type": "string"
        }
      ],
      "stateMutability": "view",
      "type": "function",
      "constant": true
    },
    {
      "inputs": [],
      "name": "awardCount",
      "outputs": [
        {
          "internalType": "uint256",
          "name": "",
          "type": "uint256"
        }
      ],
      "stateMutability": "view",
      "type": "function",
      "constant": true
    },
    {
      "inputs": [
        {
          "internalType": "uint256",
          "name": "",
          "type": "uint256"
        }
      ],
      "name": "awards",
      "outputs": [
        {
          "internalType": "string",
          "name": "name",
          "type": "string"
        },
        {
          "internalType": "uint256",
          "name": "count",
          "type": "uint256"
        },
        {
          "internalType": "uint256",
          "name": "price",
          "type": "uint256"
        },
        {
          "internalType": "enum StepCoin.State",
          "name": "state",
          "type": "uint8"
        },
        {
          "internalType": "address payable",
          "name": "seller",
          "type": "address"
        },
        {
          "internalType": "address payable",
          "name": "buyer",
          "type": "address"
        }
      ],
      "stateMutability": "view",
      "type": "function",
      "constant": true
    },
    {
      "inputs": [
        {
          "internalType": "address",
          "name": "",
          "type": "address"
        }
      ],
      "name": "balances",
      "outputs": [
        {
          "internalType": "uint256",
          "name": "",
          "type": "uint256"
        }
      ],
      "stateMutability": "view",
      "type": "function",
      "constant": true
    },
    {
      "inputs": [
        {
          "internalType": "address",
          "name": "",
          "type": "address"
        }
      ],
      "name": "enrolled",
      "outputs": [
        {
          "internalType": "bool",
          "name": "",
          "type": "bool"
        }
      ],
      "stateMutability": "view",
      "type": "function",
      "constant": true
    },
    {
      "inputs": [],
      "name": "owner",
      "outputs": [
        {
          "internalType": "address",
          "name": "",
          "type": "address"
        }
      ],
      "stateMutability": "view",
      "type": "function",
      "constant": true
    },
    {
      "inputs": [],
      "name": "paused",
      "outputs": [
        {
          "internalType": "bool",
          "name": "",
          "type": "bool"
        }
      ],
      "stateMutability": "view",
      "type": "function",
      "constant": true
    },
    {
      "inputs": [],
      "name": "renounceOwnership",
      "outputs": [],
      "stateMutability": "nonpayable",
      "type": "function"
    },
    {
      "inputs": [
        {
          "internalType": "address",
          "name": "newOwner",
          "type": "address"
        }
      ],
      "name": "transferOwnership",
      "outputs": [],
      "stateMutability": "nonpayable",
      "type": "function"
    },
    {
      "inputs": [],
      "name": "enroll",
      "outputs": [
        {
          "internalType": "bool",
          "name": "",
          "type": "bool"
        }
      ],
      "stateMutability": "nonpayable",
      "type": "function"
    },
    {
      "inputs": [
        {
          "internalType": "uint256",
          "name": "step",
          "type": "uint256"
        }
      ],
      "name": "depositSteps",
      "outputs": [
        {
          "internalType": "uint256",
          "name": "",
          "type": "uint256"
        }
      ],
      "stateMutability": "payable",
      "type": "function",
      "payable": true
    },
    {
      "inputs": [],
      "name": "checkmyAwards",
      "outputs": [
        {
          "internalType": "string[]",
          "name": "",
          "type": "string[]"
        }
      ],
      "stateMutability": "view",
      "type": "function",
      "constant": true
    },
    {
      "inputs": [
        {
          "internalType": "string",
          "name": "_name",
          "type": "string"
        },
        {
          "internalType": "uint256",
          "name": "_price",
          "type": "uint256"
        }
      ],
      "name": "addAward",
      "outputs": [
        {
          "internalType": "bool",
          "name": "",
          "type": "bool"
        }
      ],
      "stateMutability": "nonpayable",
      "type": "function"
    },
    {
      "inputs": [
        {
          "internalType": "uint256",
          "name": "_i",
          "type": "uint256"
        }
      ],
      "name": "buyAward",
      "outputs": [
        {
          "internalType": "uint256",
          "name": "",
          "type": "uint256"
        }
      ],
      "stateMutability": "payable",
      "type": "function",
      "payable": true
    },
    {
      "inputs": [
        {
          "internalType": "uint256",
          "name": "_i",
          "type": "uint256"
        }
      ],
      "name": "useAward",
      "outputs": [
        {
          "internalType": "bool",
          "name": "",
          "type": "bool"
        }
      ],
      "stateMutability": "payable",
      "type": "function",
      "payable": true
    },
    {
      "inputs": [],
      "name": "pause",
      "outputs": [],
      "stateMutability": "nonpayable",
      "type": "function"
    },
    {
      "inputs": [],
      "name": "unpause",
      "outputs": [],
      "stateMutability": "nonpayable",
      "type": "function"
    }
  ],
  "bytecode": "0x60806040526000600260006101000a81548160ff02191690831515021790555034801561002b57600080fd5b5061004861003d61004d60201b60201c565b61005560201b60201c565b610119565b600033905090565b60008060009054906101000a900473ffffffffffffffffffffffffffffffffffffffff169050816000806101000a81548173ffffffffffffffffffffffffffffffffffffffff021916908373ffffffffffffffffffffffffffffffffffffffff1602179055508173ffffffffffffffffffffffffffffffffffffffff168173ffffffffffffffffffffffffffffffffffffffff167f8be0079c531659141344cd1fd0a4f28419497f9722a3daafe3b4186f6b6457e060405160405180910390a35050565b6121a080620001296000396000f3fe6080604052600436106100fe5760003560e01c80638da5cb5b11610095578063ce652c6a11610064578063ce652c6a1461031d578063e65f2a7e14610348578063f2fde38b14610373578063f767ff5d1461039c578063fc5a5b63146103cc576100fe565b80638da5cb5b1461024d5780639a133832146102785780639bcb1fdb146102b5578063a3883dbc146102f2576100fe565b80633f4ba83a116100d15780633f4ba83a146101dd5780635c975abb146101f4578063715018a61461021f5780638456cb5914610236576100fe565b806310eb0e0e1461010357806316c4ca5a1461014057806327e235e31461017057806331704961146101ad575b600080fd5b34801561010f57600080fd5b5061012a600480360381019061012591906118e2565b61040e565b6040516101379190611d20565b60405180910390f35b61015a6004803603810190610155919061199f565b61042e565b6040516101679190611d20565b60405180910390f35b34801561017c57600080fd5b50610197600480360381019061019291906118e2565b61066d565b6040516101a49190611e65565b60405180910390f35b6101c760048036038101906101c2919061199f565b610685565b6040516101d49190611e65565b60405180910390f35b3480156101e957600080fd5b506101f2610b11565b005b34801561020057600080fd5b50610209610bef565b6040516102169190611d20565b60405180910390f35b34801561022b57600080fd5b50610234610c02565b005b34801561024257600080fd5b5061024b610c8a565b005b34801561025957600080fd5b50610262610d69565b60405161026f9190611c83565b60405180910390f35b34801561028457600080fd5b5061029f600480360381019061029a9190611947565b610d92565b6040516102ac9190611d20565b60405180910390f35b3480156102c157600080fd5b506102dc60048036038101906102d7919061190b565b610fd3565b6040516102e99190611d3b565b60405180910390f35b3480156102fe57600080fd5b5061030761108c565b6040516103149190611e65565b60405180910390f35b34801561032957600080fd5b50610332611092565b60405161033f9190611cfe565b60405180910390f35b34801561035457600080fd5b5061035d6111a8565b60405161036a9190611d20565b60405180910390f35b34801561037f57600080fd5b5061039a600480360381019061039591906118e2565b6112a5565b005b6103b660048036038101906103b1919061199f565b61139d565b6040516103c39190611e65565b60405180910390f35b3480156103d857600080fd5b506103f360048036038101906103ee919061199f565b611561565b60405161040596959493929190611d5d565b60405180910390f35b60036020528060005260406000206000915054906101000a900460ff1681565b6000600260009054906101000a900460ff161561044a57600080fd5b8160016002811115610485577f4e487b7100000000000000000000000000000000000000000000000000000000600052602160045260246000fd5b6005600083815260200190815260200160002060030160009054906101000a900460ff1660028111156104e1577f4e487b7100000000000000000000000000000000000000000000000000000000600052602160045260246000fd5b1480156105515750600073ffffffffffffffffffffffffffffffffffffffff166005600083815260200190815260200160002060030160019054906101000a900473ffffffffffffffffffffffffffffffffffffffff1673ffffffffffffffffffffffffffffffffffffffff1614155b61055a57600080fd5b3373ffffffffffffffffffffffffffffffffffffffff166005600085815260200190815260200160002060030160019054906101000a900473ffffffffffffffffffffffffffffffffffffffff1673ffffffffffffffffffffffffffffffffffffffff16146105fe576040517f08c379a00000000000000000000000000000000000000000000000000000000081526004016105f590611dc5565b60405180910390fd5b60026005600085815260200190815260200160002060030160006101000a81548160ff0219169083600281111561065e577f4e487b7100000000000000000000000000000000000000000000000000000000600052602160045260246000fd5b02179055506001915050919050565b60046020528060005260406000206000915090505481565b600081600060028111156106c2577f4e487b7100000000000000000000000000000000000000000000000000000000600052602160045260246000fd5b6005600083815260200190815260200160002060030160009054906101000a900460ff16600281111561071e577f4e487b7100000000000000000000000000000000000000000000000000000000600052602160045260246000fd5b14801561078e5750600073ffffffffffffffffffffffffffffffffffffffff166005600083815260200190815260200160002060030160019054906101000a900473ffffffffffffffffffffffffffffffffffffffff1673ffffffffffffffffffffffffffffffffffffffff1614155b61079757600080fd5b826005600082815260200190815260200160002060020154600460003373ffffffffffffffffffffffffffffffffffffffff1673ffffffffffffffffffffffffffffffffffffffff168152602001908152602001600020541015610830576040517f08c379a000000000000000000000000000000000000000000000000000000000815260040161082790611e05565b60405180910390fd5b600260009054906101000a900460ff161561084a57600080fd5b336005600086815260200190815260200160002060040160006101000a81548173ffffffffffffffffffffffffffffffffffffffff021916908373ffffffffffffffffffffffffffffffffffffffff16021790555060016005600086815260200190815260200160002060030160006101000a81548160ff021916908360028111156108ff577f4e487b7100000000000000000000000000000000000000000000000000000000600052602160045260246000fd5b02179055506005600085815260200190815260200160002060020154600460003373ffffffffffffffffffffffffffffffffffffffff1673ffffffffffffffffffffffffffffffffffffffff16815260200190815260200160002060008282546109699190611f3c565b92505081905550600660003373ffffffffffffffffffffffffffffffffffffffff1673ffffffffffffffffffffffffffffffffffffffff16815260200190815260200160002060056000868152602001908152602001600020600001908060018154018082558091505060019003906000526020600020016000909190919091509080546109f690612058565b610a0192919061173e565b507fbd434383a6b06c152a65dd95ea76c9dc4659ed28d33d0fc359ca637401e7a29d6005600086815260200190815260200160002060040160009054906101000a900473ffffffffffffffffffffffffffffffffffffffff166005600087815260200190815260200160002060020154600460003373ffffffffffffffffffffffffffffffffffffffff1673ffffffffffffffffffffffffffffffffffffffff16815260200190815260200160002054604051610ac093929190611c9e565b60405180910390a1600460003373ffffffffffffffffffffffffffffffffffffffff1673ffffffffffffffffffffffffffffffffffffffff1681526020019081526020016000205492505050919050565b610b19611672565b73ffffffffffffffffffffffffffffffffffffffff16610b37610d69565b73ffffffffffffffffffffffffffffffffffffffff1614610b8d576040517f08c379a0000000000000000000000000000000000000000000000000000000008152600401610b8490611e25565b60405180910390fd5b600260009054906101000a900460ff16610ba657600080fd5b6000600260006101000a81548160ff0219169083151502179055507f7805862f689e2f13df9f062ff482ad3ad112aca9e0847911ed832e158c525b3360405160405180910390a1565b600260009054906101000a900460ff1681565b610c0a611672565b73ffffffffffffffffffffffffffffffffffffffff16610c28610d69565b73ffffffffffffffffffffffffffffffffffffffff1614610c7e576040517f08c379a0000000000000000000000000000000000000000000000000000000008152600401610c7590611e25565b60405180910390fd5b610c88600061167a565b565b610c92611672565b73ffffffffffffffffffffffffffffffffffffffff16610cb0610d69565b73ffffffffffffffffffffffffffffffffffffffff1614610d06576040517f08c379a0000000000000000000000000000000000000000000000000000000008152600401610cfd90611e25565b60405180910390fd5b600260009054906101000a900460ff1615610d2057600080fd5b6001600260006101000a81548160ff0219169083151502179055507f6985a02210a168e66602d3235cb6db0e70f92b3ba4d376a33c0f3d9434bff62560405160405180910390a1565b60008060009054906101000a900473ffffffffffffffffffffffffffffffffffffffff16905090565b6000600260009054906101000a900460ff1615610dae57600080fd5b6040518060c0016040528085858080601f016020809104026020016040519081016040528093929190818152602001838380828437600081840152601f19601f820116905080830192505050505050508152602001600154815260200183815260200160006002811115610e4b577f4e487b7100000000000000000000000000000000000000000000000000000000600052602160045260246000fd5b81526020013373ffffffffffffffffffffffffffffffffffffffff168152602001600073ffffffffffffffffffffffffffffffffffffffff168152506005600060015481526020019081526020016000206000820151816000019080519060200190610eb89291906117cb565b50602082015181600101556040820151816002015560608201518160030160006101000a81548160ff02191690836002811115610f1e577f4e487b7100000000000000000000000000000000000000000000000000000000600052602160045260246000fd5b021790555060808201518160030160016101000a81548173ffffffffffffffffffffffffffffffffffffffff021916908373ffffffffffffffffffffffffffffffffffffffff16021790555060a08201518160040160006101000a81548173ffffffffffffffffffffffffffffffffffffffff021916908373ffffffffffffffffffffffffffffffffffffffff16021790555090505060018054610fc29190611ee6565b600181905550600190509392505050565b60066020528160005260406000208181548110610fef57600080fd5b9060005260206000200160009150915050805461100b90612058565b80601f016020809104026020016040519081016040528092919081815260200182805461103790612058565b80156110845780601f1061105957610100808354040283529160200191611084565b820191906000526020600020905b81548152906001019060200180831161106757829003601f168201915b505050505081565b60015481565b6060600660003373ffffffffffffffffffffffffffffffffffffffff1673ffffffffffffffffffffffffffffffffffffffff168152602001908152602001600020805480602002602001604051908101604052809291908181526020016000905b8282101561119f57838290600052602060002001805461111290612058565b80601f016020809104026020016040519081016040528092919081815260200182805461113e90612058565b801561118b5780601f106111605761010080835404028352916020019161118b565b820191906000526020600020905b81548152906001019060200180831161116e57829003601f168201915b5050505050815260200190600101906110f3565b50505050905090565b6000600260009054906101000a900460ff16156111c457600080fd5b6001600360003373ffffffffffffffffffffffffffffffffffffffff1673ffffffffffffffffffffffffffffffffffffffff16815260200190815260200160002060006101000a81548160ff0219169083151502179055507f990c442e6adb818b8fa7db3cf1023decd07f7b66e5306928c7ed527d974192bb3360405161124b9190611c83565b60405180910390a1600360003373ffffffffffffffffffffffffffffffffffffffff1673ffffffffffffffffffffffffffffffffffffffff16815260200190815260200160002060009054906101000a900460ff16905090565b6112ad611672565b73ffffffffffffffffffffffffffffffffffffffff166112cb610d69565b73ffffffffffffffffffffffffffffffffffffffff1614611321576040517f08c379a000000000000000000000000000000000000000000000000000000000815260040161131890611e25565b60405180910390fd5b600073ffffffffffffffffffffffffffffffffffffffff168173ffffffffffffffffffffffffffffffffffffffff161415611391576040517f08c379a000000000000000000000000000000000000000000000000000000000815260040161138890611de5565b60405180910390fd5b61139a8161167a565b50565b6000600260009054906101000a900460ff16156113b957600080fd5b60011515600360003373ffffffffffffffffffffffffffffffffffffffff1673ffffffffffffffffffffffffffffffffffffffff16815260200190815260200160002060009054906101000a900460ff1615151461144c576040517f08c379a000000000000000000000000000000000000000000000000000000000815260040161144390611e45565b60405180910390fd5b81600460003373ffffffffffffffffffffffffffffffffffffffff1673ffffffffffffffffffffffffffffffffffffffff168152602001908152602001600020600082825461149b9190611ee6565b925050819055507fd7d4bb646aebbc253bc680b22568524f9f1a717b17aae0fa35a6ec36f5731e9533600460003373ffffffffffffffffffffffffffffffffffffffff1673ffffffffffffffffffffffffffffffffffffffff16815260200190815260200160002054604051611512929190611cd5565b60405180910390a1600460003373ffffffffffffffffffffffffffffffffffffffff1673ffffffffffffffffffffffffffffffffffffffff168152602001908152602001600020549050919050565b600560205280600052604060002060009150905080600001805461158490612058565b80601f01602080910402602001604051908101604052809291908181526020018280546115b090612058565b80156115fd5780601f106115d2576101008083540402835291602001916115fd565b820191906000526020600020905b8154815290600101906020018083116115e057829003601f168201915b5050505050908060010154908060020154908060030160009054906101000a900460ff16908060030160019054906101000a900473ffffffffffffffffffffffffffffffffffffffff16908060040160009054906101000a900473ffffffffffffffffffffffffffffffffffffffff16905086565b600033905090565b60008060009054906101000a900473ffffffffffffffffffffffffffffffffffffffff169050816000806101000a81548173ffffffffffffffffffffffffffffffffffffffff021916908373ffffffffffffffffffffffffffffffffffffffff1602179055508173ffffffffffffffffffffffffffffffffffffffff168173ffffffffffffffffffffffffffffffffffffffff167f8be0079c531659141344cd1fd0a4f28419497f9722a3daafe3b4186f6b6457e060405160405180910390a35050565b82805461174a90612058565b90600052602060002090601f01602090048101928261176c57600085556117ba565b82601f1061177d57805485556117ba565b828001600101855582156117ba57600052602060002091601f016020900482015b828111156117b957825482559160010191906001019061179e565b5b5090506117c79190611851565b5090565b8280546117d790612058565b90600052602060002090601f0160209004810192826117f95760008555611840565b82601f1061181257805160ff1916838001178555611840565b82800160010185558215611840579182015b8281111561183f578251825591602001919060010190611824565b5b50905061184d9190611851565b5090565b5b8082111561186a576000816000905550600101611852565b5090565b60008135905061187d8161213c565b92915050565b60008083601f84011261189557600080fd5b8235905067ffffffffffffffff8111156118ae57600080fd5b6020830191508360018202830111156118c657600080fd5b9250929050565b6000813590506118dc81612153565b92915050565b6000602082840312156118f457600080fd5b60006119028482850161186e565b91505092915050565b6000806040838503121561191e57600080fd5b600061192c8582860161186e565b925050602061193d858286016118cd565b9150509250929050565b60008060006040848603121561195c57600080fd5b600084013567ffffffffffffffff81111561197657600080fd5b61198286828701611883565b93509350506020611995868287016118cd565b9150509250925092565b6000602082840312156119b157600080fd5b60006119bf848285016118cd565b91505092915050565b60006119d48383611a9c565b905092915050565b6119e581611fdd565b82525050565b6119f481611f82565b82525050565b611a0381611f70565b82525050565b6000611a1482611e90565b611a1e8185611eb3565b935083602082028501611a3085611e80565b8060005b85811015611a6c5784840389528151611a4d85826119c8565b9450611a5883611ea6565b925060208a01995050600181019050611a34565b50829750879550505050505092915050565b611a8781611f94565b82525050565b611a9681611fef565b82525050565b6000611aa782611e9b565b611ab18185611ec4565b9350611ac1818560208601612025565b611aca81612117565b840191505092915050565b6000611ae082611e9b565b611aea8185611ed5565b9350611afa818560208601612025565b611b0381612117565b840191505092915050565b6000611b1b601483611ed5565b91507f596f7520617265206e6f7420612073656c6c65720000000000000000000000006000830152602082019050919050565b6000611b5b602683611ed5565b91507f4f776e61626c653a206e6577206f776e657220697320746865207a65726f206160008301527f64647265737300000000000000000000000000000000000000000000000000006020830152604082019050919050565b6000611bc1601483611ed5565b91507f4e6f7420656e6f7567682053746570636f696e730000000000000000000000006000830152602082019050919050565b6000611c01602083611ed5565b91507f4f776e61626c653a2063616c6c6572206973206e6f7420746865206f776e65726000830152602082019050919050565b6000611c41600d83611ed5565b91507f506c6561736520656e726f6c6c000000000000000000000000000000000000006000830152602082019050919050565b611c7d81611fd3565b82525050565b6000602082019050611c9860008301846119fa565b92915050565b6000606082019050611cb360008301866119dc565b611cc06020830185611c74565b611ccd6040830184611c74565b949350505050565b6000604082019050611cea60008301856119fa565b611cf76020830184611c74565b9392505050565b60006020820190508181036000830152611d188184611a09565b905092915050565b6000602082019050611d356000830184611a7e565b92915050565b60006020820190508181036000830152611d558184611ad5565b905092915050565b600060c0820190508181036000830152611d778189611ad5565b9050611d866020830188611c74565b611d936040830187611c74565b611da06060830186611a8d565b611dad60808301856119eb565b611dba60a08301846119eb565b979650505050505050565b60006020820190508181036000830152611dde81611b0e565b9050919050565b60006020820190508181036000830152611dfe81611b4e565b9050919050565b60006020820190508181036000830152611e1e81611bb4565b9050919050565b60006020820190508181036000830152611e3e81611bf4565b9050919050565b60006020820190508181036000830152611e5e81611c34565b9050919050565b6000602082019050611e7a6000830184611c74565b92915050565b6000819050602082019050919050565b600081519050919050565b600081519050919050565b6000602082019050919050565b600082825260208201905092915050565b600082825260208201905092915050565b600082825260208201905092915050565b6000611ef182611fd3565b9150611efc83611fd3565b9250827fffffffffffffffffffffffffffffffffffffffffffffffffffffffffffffffff03821115611f3157611f3061208a565b5b828201905092915050565b6000611f4782611fd3565b9150611f5283611fd3565b925082821015611f6557611f6461208a565b5b828203905092915050565b6000611f7b82611fb3565b9050919050565b6000611f8d82611fb3565b9050919050565b60008115159050919050565b6000819050611fae82612128565b919050565b600073ffffffffffffffffffffffffffffffffffffffff82169050919050565b6000819050919050565b6000611fe882612001565b9050919050565b6000611ffa82611fa0565b9050919050565b600061200c82612013565b9050919050565b600061201e82611fb3565b9050919050565b60005b83811015612043578082015181840152602081019050612028565b83811115612052576000848401525b50505050565b6000600282049050600182168061207057607f821691505b60208210811415612084576120836120e8565b5b50919050565b7f4e487b7100000000000000000000000000000000000000000000000000000000600052601160045260246000fd5b7f4e487b7100000000000000000000000000000000000000000000000000000000600052602160045260246000fd5b7f4e487b7100000000000000000000000000000000000000000000000000000000600052602260045260246000fd5b6000601f19601f8301169050919050565b60038110612139576121386120b9565b5b50565b61214581611f70565b811461215057600080fd5b50565b61215c81611fd3565b811461216757600080fd5b5056fea26469706673582212208991289a74d2a7b768750ea67ee9584e2c402ea91c434f950f0625a420d6e1e964736f6c63430008000033",
  "immutableReferences": {},
  "source": "// SPDX-License-Identifier: MIT\n//pragma solidity >=0.4.21 <0.8.9;\npragma solidity 0.8.0;\npragma experimental ABIEncoderV2;\n\nimport \"@openzeppelin/contracts/access/Ownable.sol\";\n\n/// @title Contract StepCoin allows to convert your steps into coins and get award\n/// @author Artem Galimzyanov\n/// @notice Allows a user to convert steps into coins and  get award\n\n\ncontract StepCoin is Ownable {\n\n/// state variables\n  uint public awardCount;\n  bool public paused = false;\n\n\nmodifier whenNotPaused () {\n    require (!paused);\n    _;\n  }\n\nmodifier whenPaused () {\n    require (paused);\n    _;\n  }\n\nmodifier paidEnough(uint _i) {\n    require(balances[msg.sender]>= awards[_i].price, \"Not enough Stepcoins\");\n    _;\n  }\n  \nmodifier forSale(uint _i) {\n    require(awards[_i].state == State.New && awards[_i].seller != address(0));\n    _;\n  }\nmodifier Redeemed(uint _i) {\n    require(awards[_i].state == State.Redeemed && awards[_i].seller != address(0));\n    _;\n  }\n\n  /// enrollment to the StepCoin\n  mapping (address => bool) public enrolled;\n  /// keep clients balances of stepcoints\n  mapping (address => uint) public balances;\n  /// mapping all awards from shops\n  mapping (uint256 => Award) public awards;\n  /// mapping of awards per user\n  mapping (address => string[]) public  List;\n\n  /// enum states of award: New, Redeemed, Used\n  enum State {\n    New,\n    Redeemed,\n    Used\n  }\n\n  /// struct Award\n  struct Award {\n    string name;\n    uint count;\n    uint price;\n    State state;\n    address payable seller;\n    address payable buyer;\n  }\n\n  ///Events\n  event LogEnrolled(address accountAddress);\n  event LogBalance(address accountAddress, uint amount);\n  event LogRedeem(address accountAddress, uint redeemAmount, uint newBalance);\n  event Pause();\n  event Unpause();\n\n\n  constructor() public {\n  \n  }\n\n// function to enroll to the Program\n  function enroll() public whenNotPaused returns(bool){\n    enrolled[msg.sender] = true;\n    emit LogEnrolled(msg.sender);\n    return enrolled[msg.sender];\n  }\n\n/// function to deposit steps and get Stepcoins\n  function depositSteps(uint step) public payable whenNotPaused returns (uint) {\n    require(enrolled[msg.sender]== true, \"Please enroll\");\n    balances[msg.sender] += step;\n    emit LogBalance(msg.sender, balances[msg.sender]);\n    return balances[msg.sender];\n  }\n\n/// function to check balance of Users awards\n  function checkmyAwards() public view returns(string[] memory){\n    return List[msg.sender];\n  }\n\n/// function to add Award to the site\n  function addAward(string calldata _name, uint _price) public whenNotPaused returns(bool){\n    awards[awardCount] = Award({\n      name: _name,\n      count: awardCount,\n      price: _price,\n      state: State.New,\n      seller: payable (msg.sender),\n      buyer: payable ( address(0))\n    });\n    \n    awardCount = awardCount +1;\n    return true;\n  }\n\n/// function to buy Award with StepCoins  \nfunction buyAward(uint _i)  public payable forSale(_i)  paidEnough(_i) whenNotPaused returns (uint){\n    awards[_i].buyer = payable (msg.sender);\n    awards[_i].state = State.Redeemed;\n    balances[msg.sender] -= awards[_i].price;\n    List[msg.sender].push(awards[_i].name);\n    emit LogRedeem(awards[_i].buyer, awards[_i].price, balances[msg.sender]);\n    return balances[msg.sender];\n}\n\n/// function to use Award\n  function useAward(uint _i) public payable whenNotPaused Redeemed(_i) returns(bool){\n    require (awards[_i].seller == msg.sender, \"You are not a seller\");\n    awards[_i].state = State.Used;\n    return true;\n  }\n\n  function pause() public onlyOwner whenNotPaused {\n    paused = true;\n    emit Pause();\n  }\n\n  function unpause() public onlyOwner whenPaused {\n    paused = false;\n    emit Unpause();\n  }\n\n}",
  "sourcePath": "/Users/artyomgalimzyanov/Documents/Blockchain/blockchain-developer-bootcamp-final-project/contracts/StepCoin.sol",
  "compiler": {
    "name": "solc",
    "version": "0.8.0+commit.c7dfd78e.Emscripten.clang"
  },
  "schemaVersion": "3.4.3",
  "updatedAt": "2021-11-02T13:27:34.013Z",
  "networkType": "ethereum",
  "devdoc": {
    "author": "Artem Galimzyanov",
    "kind": "dev",
    "methods": {
      "owner()": {
        "details": "Returns the address of the current owner."
      },
      "renounceOwnership()": {
        "details": "Leaves the contract without owner. It will not be possible to call `onlyOwner` functions anymore. Can only be called by the current owner. NOTE: Renouncing ownership will leave the contract without an owner, thereby removing any functionality that is only available to the owner."
      },
      "transferOwnership(address)": {
        "details": "Transfers ownership of the contract to a new account (`newOwner`). Can only be called by the current owner."
      }
    },
    "title": "Contract StepCoin allows to convert your steps into coins and get award",
    "version": 1
  },
  "userdoc": {
    "events": {
      "LogEnrolled(address)": {
        "notice": "Events"
      }
    },
    "kind": "user",
    "methods": {
      "List(address,uint256)": {
        "notice": "mapping of awards per user"
      },
      "addAward(string,uint256)": {
        "notice": "function to add Award to the site"
      },
      "awardCount()": {
        "notice": "state variables"
      },
      "awards(uint256)": {
        "notice": "mapping all awards from shops"
      },
      "balances(address)": {
        "notice": "keep clients balances of stepcoints"
      },
      "buyAward(uint256)": {
        "notice": "function to buy Award with StepCoins  "
      },
      "checkmyAwards()": {
        "notice": "function to check balance of Users awards"
      },
      "depositSteps(uint256)": {
        "notice": "function to deposit steps and get Stepcoins"
      },
      "enrolled(address)": {
        "notice": "enrollment to the StepCoin"
      },
      "useAward(uint256)": {
        "notice": "function to use Award"
      }
    },
    "notice": "Allows a user to convert steps into coins and  get award",
    "version": 1
  }
}